:020000041000EA
:1000000000B5324B212058609868022188439860DF
:10001000D860186158612E4B002199600221596106
:100020000121F02299502B49196001219960352056
:1000300000F044F80222904214D00621196600F024
:1000400034F8196E01211966002018661A6600F04E
:100050002CF8196E196E196E052000F02FF8012189
:100060000842F9D1002199601B49196000215960AB
:100070001A491B48016001219960EB211966A021F2
:10008000196600F012F800219960164914480160C1
:100090000121996001BC002800D000471248134993
:1000A000086003C880F30888084703B5996A0420EC
:1000B0000142FBD001200142F8D103BD02B5186610
:1000C0001866FFF7F2FF186E186E02BD00000240BE
:1000D000000000180000070000035F00212200005C
:1000E000F4000018222000A00001001008ED00E03C
:1000F00000000000000000000000000074B24E7A12
:1001000000200420F7010010C3010010C5010010F9
:10011000C1010010C1010010C1010010C101001097
:10012000C1010010C1010010C1010010C701001081
:10013000C1010010C1010010C9010010CB01001065
:10014000CD010010CD010010CD010010CD01001037
:10015000CD010010CD010010CD010010CD01001027
:10016000CD010010CD010010CD010010CD01001017
:10017000CD010010CD010010CD010010CD01001007
:10018000CD010010CD010010CD010010CD010010F7
:10019000CD010010CD010010CD010010CD010010E7
:1001A000CD010010CD010010CD010010CD010010D7
:1001B000CD010010CD010010CD010010CD010010C7
:1001C00000BE00BE00BE00BE00BE00BEEFF3058054
:1001D000103800BEF2EB887168F3041090F304103D
:1001E0003402001090A31AE700201F49086006C8D7
:1001F00081F3088810471D48006800282FD10DA4FE
:100200000ECC002902D000F012F8F9E71849194A7B
:10021000002000E001C19142FCD1174988471749ED
:1002200088471749884700BEFDE701C901C29A42C5
:10023000FBD3704790F30410C00000200811002089
:10024000F80305100000042000000420F803051046
:10025000001004200010042000000000704709482E
:1002600000F0F2FE0047000008ED00E0000000D0C2
:10027000281100206CD800203D110110C50300108A
:10028000311201105756000006005250ABB36053B4
:10029000F0EF041006005250861C030200F0041018
:1002A000060052505422A29D08F00410050052503E
:1002B000DE65F468F8030510F8B5C046064807493E
:1002C000091A8B10C90FC91810B5491003D0044B77
:1002D000002B00D0984710BD081100200811002005
:1002E00000000000054B10B5002B03D00449054861
:1002F00000E000BFFFF7E2FF10BDC04600000000B5
:10030000CCC60020005A011070B584B008F03CFB48
:1003100001A906000C22202000F088F86946264832
:100320000BF056FE13E0012100200CF0A1F8FA209A
:10033000800001F025FF002100200CF099F8FA2040
:10034000800001F01DFFFA20800001F019FFA022BB
:1003500065219200362003F03DFB4568040028002B
:10036000592200210C3012F099FE0C22280001A91C
:1003700012F09AFE6A4621003000104B08F074FA21
:100380000500200003F082FC002DCCD029000C4891
:1003900013F05EF8012100200CF06AF8FA2040000A
:1003A00001F0EEFE002100200CF062F8FA2040007F
:1003B00001F0E6FEEEE7C046005A01100119000008
:1003C000105A011010B513F04FF812480CF048F80D
:1003D000002818D10BF0E6FF0F491048104B114AC6
:1003E0000BF0EEFF002813D0012100200CF040F8A4
:1003F000642001F0C5FE002100200CF039F86420D3
:1004000001F0BEFEF0E7084813F022F8012010BD0D
:10041000FFF77AFF55530000880F0020940F00204B
:10042000A086010004004000345A0110130030B5CA
:100430000C3B85B00C000190582B1FD800212000E8
:100440000E2512F02BFE002302220E496D442000DF
:100450002B8012F029FE02222900A01C12F024FE9B
:1004600004220949201D12F01FFE2000042208303A
:1004700001A912F019FE002005B030BD0120404254
:10048000FAE7C046485A01104C5A011010B507F05F
:100490001BFF10BDF8B501230B72040007F048FFE5
:1004A0000500431C0BD1104B186859680F4B22688C
:1004B0009860D9601900200052699047F8BD01F09A
:1004C00021FFFA2206000F000023280000219200DD
:1004D00012F08EFD8023801979411B069942E5D3E5
:1004E000012003494042E1E7885A0110A00F002093
:1004F000FFFFFF7F70B5094D04002B78002B08D05B
:100500000123074920000B722368DB69984701200B
:1005100070BD02F07BFA01232B70F1E75AD800205E
:10052000B80F002010B50400036804499B69984780
:100530002368200002491B6A984710BDA00F0020C5
:10054000B80F0020002070477047C04610B501F07A
:10055000D9FE002905D0FA220023920012F018FAE1
:1005600010BDFA21890012F0D5F9F9E78368083047
:10057000002B04D107E018001B68002B03D0994220
:10058000F9D1002003E00023016001200B607047D7
:100590008368002B08D0994202D107E0994206D027
:1005A00018001B68002BF9D10020704708300B6839
:1005B00003600120F9E7C04643680430002B04D1F2
:1005C00007E018001B68002B03D09942F9D10020E6
:1005D00003E00023016001200B6070474368002B9B
:1005E00008D0994202D107E0994206D018001B6852
:1005F000002BF9D10020704704300B680360012004
:10060000F9E7C046F0B54646D6464F468368804671
:10061000C0B5002B2CD008234344994601F072FE4C
:1006200043469B6804000D009C46002B20D01E0012
:1006300000234F469A46B268F36820002900801ACA
:100640009941002902DB14001D00BA4637003668C4
:10065000002EF0D15346002B48D052461968404630
:100660000B6813604B68984743469B68002BD5D1B5
:1006700043465C68002C35D00025237A002B28D017
:10068000210063682572404698472468002CF4D105
:1006900043469B689C46194B186859686346002B73
:1006A0000FD063461A689C68DD6894460B00020010
:1006B000121BAB41002B10DD634620002900002BEC
:1006C000EFD1434618615961E0BCBA46B146A8462D
:1006D000F0BD2468002CD0D1DAE7002BDED1002A4F
:1006E000EAD1DBE7054B18685968EAE743465C68DE
:1006F000002CC1D1014B18685968D2E7885A011003
:10070000024B18688007C00F7047C04600C0064003
:1007100070B50F4C0F4D104A24184D41A900A00F81
:100720000843A90F69400D4B604012F061FC4A017B
:10073000C30E1343CA0E58405140094B094A12F0E8
:1007400057FC4A00C30F1343CA0F5840514070BDB5
:10075000157C4A7FB979379EB9E5E41C6D4758BFCF
:10076000BB49D094EB113113F0B50468456806001D
:1007700023002A00C6468068F16803430A4300B597
:10078000134304D101F0BEFD03000B43FAD02A0647
:10079000230A6040270613432A0A3A43070CBC4643
:1007A00069404B40984663460F041F434240030490
:1007B0005A4043467B4032607360C20E4B01134384
:1007C000C90E40010843B360A10FAB000B43A20068
:1007D00012196B41F060D901500E0843D201590E35
:1007E00011430C0005004B0FC1001943E000001934
:1007F000694180BCB846F0BDF0B5DE4657464E466E
:100800004546E0B5BC4991B008910978002900D16E
:10081000E4E00CAB9846B94BB94C0293B94BBA4ED5
:10082000059310220599404612F03EFCB74B069303
:100830001B78DBB2079301F065FDFFF769FF0C9BA6
:100840004340089343465B684B400993B04B9B6918
:10085000DB0433D5AF4BDA6BE0231340402B2DD0B4
:10086000EFF305839A46AC4B2768994600239B46D5
:100870003300564665689A4638002900002E1AD083
:1008800001F04AFDEFF3108272B64B461B68002B55
:10089000FBD0BFF35F8F2368BB4212D0BFF35F8FE3
:1008A0004B465946196082F31088276865683800FE
:1008B0002900002EE4D101F001FCE3E710F0D4FCA4
:1008C000CEE76368AB42E9D1914B1500DF6901F0D7
:1008D00019FD0A220023801859410B008021564639
:1008E000020009068B4202D301228C4B52420120A6
:1008F0000CC43268736892185B413840104300247E
:100900000092019330607360BFF35F8F824A14607E
:1009100085F310880199FFF7FBFE43469B6842462A
:1009200058404346DB6890604B40D3607C4A029B52
:1009300094461B787B4ADB006344986890424BD016
:100940000021FFF7E5FE089B1840099B0C90194019
:1009500043465960EFF3108572B66F4A1368002B57
:10096000FCD0BFF35F8F069B079A1B78934214D08D
:1009700005980C9A036841685A4043465B680C929C
:1009800042464B40536092688368C1685A40434670
:10099000DB684B4041468A60CB604046FFF7E4FE8F
:1009A000102206000C000598414612F07DFB069AC5
:1009B00013780133DBB21370BFF35F8F0022564B05
:1009C0001A6085F310883000210011B0F0BCBB46DE
:1009D000B246A946A046F0BD9C60B1E7524D534CCB
:1009E000AC4620686168524DA246A8460092019329
:1009F000850D8F0286022F4334003D0024184D419F
:100A0000A30E9946AB0101934B46019A1A43A301E9
:100A100000930192009C019D241A8D4120006446A0
:100A200008CC290002930023A4460393029C039D53
:100A300000196941C445DBD1544620606160FFF76D
:100A400067FE0CAB98460C9B4340029343465B68A1
:100A50000AA84B40059300F02DF90A980B99FFF76F
:100A600057FE43469B68434006934346DB684B4032
:100A70000793274B9B69DB0400D4F5E0254BDA6B29
:100A8000E0231340402B00D1EEE0EFF30583002478
:100A90009A4600234025009301941F4B2E0099464F
:100AA0005546C346164C0023B04627682E0065689D
:100AB0009A4638002900002E1AD001F02DFCEFF3E1
:100AC000108272B64B461B68002BFBD0BFF35F8FC2
:100AD0002368BB422ED0BFF35F8F4B46514619604F
:100AE00082F310882768656838002900002EE4D159
:100AF00001F0E4FAE3E7C04664D8002055D80020AE
:100B0000A0120020181100200811002056D8002043
:100B10000000064000800040300100D0FFFFFF7F52
:100B200000000340FFFFFF00001C04201011002004
:100B3000002004206368AB42CDD135004646904684
:100B4000009A019B10001900801859414B4BDA693B
:100B50000123134003430093019101F0D3FB0A22C8
:100B60000023801859410B008021020009068B42A6
:100B700002D30122424B524222606360012E5ED1B9
:100B80000098019935003F4E474630607160D84665
:100B9000BFF35F8F3C4B994600234A46136087F3AF
:100BA0001088FFF7B5FD029B43400C93059B4B401B
:100BB00019005B46596001F0A5FBFFF7A9FD069BF4
:100BC000434018005B469860079B4B4019005B460A
:100BD000D960EFF3108772B64B461B68002BFBD031
:100BE000BFF35F8F089B1B78002B31D1274BDA684E
:100BF0001F2A3CD05A691F2A3AD0DA691F2A39D0F5
:100C00005B6A03251F2B33D010F02EFBFF25FF233B
:100C10001F4AED0013701F4B02929C46052365444A
:100C20006B604046FFF7A0FD1B4B102218004146A9
:100C3000059312F039FA0123089A13700CE0BFF300
:100C40005F8F00234A46136088F31088013E2AE72D
:100C50000F4B0293104B0593BFF35F8F00220A4B9B
:100C60001A6087F31088DCE510F0FEFA0DE7002526
:100C7000EBB2CDE70225EBB2CAE7C0460000064062
:100C8000FFFFFF7F08110020300100D0000003406B
:100C900055D80020080003401811002010B5FFF7B8
:100CA000ABFD10BD10B5024800F0E0F810BDC04625
:100CB000CCD6002010B50822014912F0F5F910BD7C
:100CC000CCD6002030B54B1E012900D1A7E0664AE2
:100CD00011780D112C0030349F2900D9A2E0047046
:100CE000012B00D1BEE00F21147821400C003034DC
:100CF000092900D998E04470022B00D1B2E0547861
:100D00002511290030319F2C00D990E08170032BF0
:100D100000D1A7E00F2121400C003034092900D96F
:100D200087E0C470042B00D19CE094782511290041
:100D300030319F2C00D97FE00171052B00D191E06B
:100D40000F2121400C003034092900D976E044718C
:100D5000062B00D186E0D4782511290030319F2C54
:100D600000D96EE08171072B00D17BE00F2121407B
:100D70000C003034092966D8C471082B00D171E009
:100D800014792511290030319F2C5FD80172092B6D
:100D900068D00F2121400C003034092958D8447202
:100DA0000A2B5FD054792511290030319F2C52D85D
:100DB00081720B2B56D00F2121400C0030340929B1
:100DC0004BD8C4720C2B4DD09479251129003031A9
:100DD0009F2C00D9073101730D2B43D00F212140E7
:100DE0000C003034092901D937310C0044730E2B23
:100DF00038D0D1790C11220030329F2900D9073226
:100E000082730F2B2ED00F220A4011003731092A8E
:100E100001D830321100C173102B23D010300023C1
:100E2000037030BD07345AE737310C0063E70731F0
:100E30006CE737310C0074E707317DE737310C0080
:100E400085E707318EE737310C0095E707319DE7DD
:100E500037310C00A3E70731AAE737310C00C47221
:100E60000C2BB1D1C018DAE7CCD6002030B5002564
:100E700089B004000922002101A8009512F00EF9A2
:100E80000922002105A8049512F008F94B236A46AF
:100E90006846137004A90D2214F03AFD15210822AA
:100EA0002000694412F000F909B030BDEFF3108062
:100EB00072B6034A1368002BFCD0BFF35F8F7047F4
:100EC0002C0100D0BFF35F8F0022024B1A6080F329
:100ED000108870472C0100D070B5EFF3108C72B6FB
:100EE0000D4D2B68002BFCD0BFF35F8F0724CB0880
:100EF000C618C05C01230C40A3401C000440034200
:100F000007D118433070BFF35F8F2C608CF31088CB
:100F100070BD100010F090F92C0100D0F8B54746D4
:100F2000CE46884680B5EFF3108C72B6214D2C6802
:100F3000002CFCD0BFF35F8F9A422CD8D40807272F
:100F4000055D061901241740BC402C421FD0072123
:100F50000127894609E0D408055D06194C46390089
:100F60001440A1400C00294211D001329342F2D228
:100F700001204042BFF35F8F00220E4B1A608CF3BA
:100F8000108800280FDBC0BCB946B046F8BD254329
:100F900010003570EEE7BFF35F8F00232B608CF3FA
:100FA0001088012040424346002BECD0089810F0F6
:100FB00043F9C0462C0100D030B5EFF3108C72B667
:100FC0000A4C2368002BFCD0BFF35F8F072301225C
:100FD0000B409A40CD08435D93434355BFF35F8F69
:100FE000002323608CF3108830BDC0462C0100D054
:100FF0000021044B044ABFF35F8F02C39342FAD12E
:101000007047C046000100D0800100D0044A10782B
:10101000431CDBB2172B00D9102313707047C04656
:10102000C40F002010B5064B064C82B0010000939F
:1010300018221F232000FFF771FF02B010BDC04629
:10104000505A0110301A0020142310B501001888DE
:1010500004331B88984710BD162310B5010018886B
:1010600002331B88984710BDF8B54746CE4680B579
:101070000F1E19D0142399460433040000250126BD
:1010800098464B461888434621681B88984701C4F8
:10109000431E9841013540420640AF42F1D1300035
:1010A000C0BCB946B046F8BD0126F8E710B50C2023
:1010B00082B001F041FCFFF723FB002810D0864BE3
:1010C00086488649864A186059609860D9601861D8
:1010D00059619861D961186259625A6202B010BDB3
:1010E000804CA06701F07EFC01227F4B1A60636C8C
:1010F000012BFCD103227D4B1A607A4A936B012BA2
:10110000FCD1013301217A4A7A480093043301F07B
:10111000BFFB0523784A00930121784801F0B8FB12
:10112000774B5A68FF2A02D8802252005A608022E8
:101130006E4B694C12011A602169002905D0606963
:1011400011F0E8FB01300138FDD1E0226C4B6D4815
:1011500019680A40026002221968514001320A40AF
:10116000042102609A681142FCD08021664A09017C
:101170001160802252005A60644B2361644B5968AD
:10118000FF2900D85A6003220121574B1A60604A98
:1011900093681942FCD0E023106803405D48036067
:1011A000126803234A4002211340594A036093689E
:1011B0001942FCD08021584B090119608021574BFE
:1011C000490051606361564B5A68FF2A00D8596044
:1011D0008022544B12011A60E169002905D0606930
:1011E00011F098FB01300138FDD1E0234C4A116821
:1011F0000B404D490B6080214C4B09011960802147
:10120000364B49005160E361494B5A68FF2A00D8C8
:1012100059608022474B12011A60216A002905D0CB
:10122000606911F077FB01300138FDD1E023404ABD
:1012300011680B4040490B608021404B0901196047
:1012400080235B0053608022244BD20223623C4BFC
:101250005968914200D25A6080223A4B12011A60BA
:10126000616A002905D0606911F054FB0130013832
:10127000FDD1E023324A11680B4033490B608021D5
:10128000324B090119608023DB025360144B636207
:101290002F4B5A68FF2A02D8802252005A608022BF
:1012A0002C4B12011A60A169002905D0606911F068
:1012B00031FB01300138FDD1E023254A11680B4094
:1012C00025490B608021254B0901196080235B00B3
:1012D0005360124BA36101E728110020006CDC026F
:1012E0001BB70000008000403CB0004030B0004020
:1012F000002F685900800240008C864700C00240E1
:10130000308000403090004030A00040001BB7000B
:101310003C8000403C9000403CA000404059730796
:101320005480004054B000405490004054A000400D
:101330006080004060B000406090004060A00040CD
:101340006C8000406CB000406C9000406CA000408D
:101350004880004048B000404890004048A000400D
:10136000014B8000C058704728110020094A10B571
:1013700094464024830063441A68C000624080346D
:1013800014408022520113431C60034B9C4660446E
:10139000416010BD04C0014000400140074B800087
:1013A0009C4660440368C90092000A435A400C23DB
:1013B0001A4080235B0103431A60704704C0014058
:1013C000084B80009C466044002905D080230222FF
:1013D0009B0103431A607047C02302229B01034311
:1013E0001A60F8E704C00140D0231B061B6830B523
:1013F0000500584243412F205B4283430D48EC08CF
:101400008446072028408000814020000A4D3C305F
:1014100063448000A40041511B19002A04D080229B
:1014200092011343196030BDC02292011343196029
:10143000F9E7C0463041014000400140D023F0B5FB
:10144000C6461B0698461B680C4F9B001600FA58B0
:1014500004000D0000B5104209D1290014430D20ED
:101460003200FC5000F09CF880BCB846F0BD0FF094
:10147000FBFE43461B689B00FA58EEE7B8D60020F7
:1014800010B504000D2000F085F9D0231B061B6861
:1014900002499B005A58A2435A5010BDB8D60020AA
:1014A0000123D0228340120693629361094A4021AE
:1014B0009446830063441A68C0004A40803111405A
:1014C0008022520113431960034B9C46052360445C
:1014D0004360704704C00140004001400123834045
:1014E000002904D0034A1360034A13607047034A7B
:1014F0001360FBE780E200E000E100E080E100E053
:1015000001238340014A13607047C04600E200E0B7
:10151000084B10309B688000C358002B07D0064A48
:1015200000209B1A2F229A424041C0B270470020EF
:10153000FCE7C04600ED00E0C80F0020024B103071
:101540009B688000C058704700ED00E070B50D004A
:10155000EFF3108672B60F4A1368002BFCD0BFF36E
:101560005F8F0D4B10309B6884001B590B4A9342D0
:1015700003D09D4201D00FF077FE074B9B681D51B1
:10158000BFF35F8FBFF35F8F0022024B1A6086F3B9
:10159000108870BD240100D000ED00E0CD010010E6
:1015A000F0B557464E46DE464546E0B585B00600E6
:1015B00000911700EFF3108B72B66A4A1368002B84
:1015C000FCD0BFF35F8F0025674B5D579A46002D17
:1015D00000DA8BE06B00654C01935B199B00984629
:1015E000A146C1444B4652469B7910361370604B5E
:1015F000B6009B6899590B1B2F2B33D95D4B994231
:1016000000D0ACE0019B42469C465B4B6544AD007C
:1016100063535A4B0232A218043B9B1A1B05584ACB
:101620005B0D651913436B80564B0121AB80FF2383
:10163000AB71009BEF71AB604B460B4319004C4BF9
:101640009B689951BFF35F8FBFF35F8F0022454BBB
:101650001A608BF3108805B0F0BCBB46B246A946B1
:10166000A046F0BD01200A008243D3798C46BB42DC
:1016700031D84546130044491B1B5B415943090DB2
:101680003D4B63533D4B02356519043B5B1B1B050A
:101690003B4D5B0D2B43AA464D466B800425AC4663
:1016A0005546E044131F44441B1B1B055B0D1D43A3
:1016B0004B46997100999D8099604946DF71334B83
:1016C00001431360BBE75800C01880002018C1799F
:1016D000B94211D902000623D356002BF3DA029344
:1016E000131D9A462A4B6146039319E00FF0BCFD87
:1016F000002553465D576DE7908802934005131D02
:101700009A46031561469C464046D44463460430DD
:101710002018181AE0230005400D1B0218430390FF
:1017200004235B429C46E14450464B461B1A1B0572
:101730005B0D9C46124B95719846634640460343A9
:101740009380019B5A199200039BA418A380029BCB
:101750000E4AA371009B2260E771A3606FE70FF050
:1017600083FD4FE7240100D05DD80020C80F002082
:1017700000ED00E0CD01001000A1FFFFF80F0020F8
:1017800000E0FFFF01BDFFFFAAAA0000014880475B
:1017900001BD0000F0B5DE4657464E464546E0B571
:1017A0000C0083B0EFF3108872B65D4A1368002B0B
:1017B000FCD0BFF35F8F5B4B5B499A68030010332B
:1017C0009F00D5598D4239D0A5424AD0574EAA1B09
:1017D0002F2A33D801229246824091464846544AE5
:1017E0001268104001904846524A1060BFF35F8F64
:1017F000EFF305829346002A35D0934201D00FF0D3
:1018000033FD2A0053469A439068844208D175E01C
:101810004B005B189B00F3189868A04234D01A0064
:10182000062151560029F3DA844253D0019B002B44
:1018300026D04A46404B1A603D4B1A60394B9B6894
:10184000DD51BFF35F8FBFF35F8F0022344B1A600F
:1018500088F3108803B0F0BCBB46B246A946A04648
:10186000F0BD0D00EAE72A0053469A43906884428F
:10187000D6D1062010561300002809DA0D0031E0F9
:101880004A462C4B1A60D9E706201856002822DB5E
:1018900042001118890074188A46A1689960E1799C
:1018A000D971062161569971002925DBA488F11AA6
:1018B0006405241554440919E0240905490D24023E
:1018C0002143998013181D4A9B001178F3189971D0
:1018D0001070ABE713005946002914D1FF31917104
:1018E0001749918015490A789A71164A9B1B5B41EA
:1018F0005A43120D0A7099E71349E2E70620105681
:1019000013000028C4DA114A1149D21A083A5002C9
:10191000400D014399800F4952080A43DA8085E758
:10192000240100D000ED00E0CD010010C80F002020
:1019300000E100E080E100E080E200E05DD800200E
:1019400001BDFFFFAAAA000001BD00000210002097
:1019500000F0FFFF00F8FFFF032310B50400074A63
:1019600018409446C0009C43FC3383406444226882
:1019700081409A4313000B43236010BD00E400E054
:1019800070B5EFF3058101240443EFF3108C72B6B8
:10199000214A1368002BFCD0BFF35F8F1F4B05005B
:1019A0001F4AED1A6D416A43120D1E4D8900AE6843
:1019B00052B27658A6421CD00621595691421CD0EC
:1019C00012215956914222D01E215956914220D0BF
:1019D0002A2159560324914210D0134B19781A70BA
:1019E0008171BFF35F8F00220B4B1A608CF310885C
:1019F00070BDAB680D4C5C50EFE700246100091925
:101A000089005B18FF21997109499980E5E7012454
:101A1000F4E70224F2E7C046240100D0C80F0020FA
:101A2000AAAA000000ED00E05DD80020CD01001062
:101A300001BDFFFF054B064A1360064A1360536061
:101A40009360D3601361536193617047808080809D
:101A500000E400E004E400E01F2110B5091A024888
:101A6000FFF7AAFA10BDC04669D8002010B5084B90
:101A7000084C82B001000093002205232000FFF7EC
:101A80004DFA002801DB1F23181A02B010BDC04612
:101A90006C5A011069D8002070B504000E001500C2
:101AA000FFF7B4FA0100200000F006F8A680E580F8
:101AB000BFF35F8F70BDC046024B9C4661448900F6
:101AC000016070474000003410B50400FFF79EFA33
:101AD00001002000FFF7F0FFFF232371BFF35F8FAA
:101AE00010BDC04610B50400FFF790FA01002000B9
:101AF000FFF7E2FFFF23A380BFF35F8F10BDC04657
:101B000010B504000120FFF78DFA034BC3189B00AA
:101B10002360BFF35F8F10BD40000034034B9C4631
:101B2000614489000160BFF35F8F7047400000345B
:101B300083680B4810B58446614462441201090170
:101B400059189B185C684A680120944201D802D059
:101B50000020C0B210BD1A680B689A42F9D8F7E7A6
:101B6000FFFFFF0F0A4B1968EFF3108072B60A6887
:101B7000002AFCD0BFF35F8F1B68BFF35F8F00228A
:101B80001A6080F3108840BF002000217047C046D3
:101B9000DCD70020F8B5574645464E46DE46E0B550
:101BA00098460CAB1C780DAB1B78070091469A4603
:101BB0000568002C5ED1AC7B002C3BD06600296808
:101BC0003619033E89194B78AB73002B00D1EB73A8
:101BD00000238B704B700B702D4BE218BB68120109
:101BE0009B184A461A6042465A600A9A9A600B9AB3
:101BF000DA6000238B704B700B706B7B9B46002B65
:101C00002BD022005946A8686B6898472A6800289C
:101C100016D05B4658465B005B449619033BB07098
:101C2000D118D35C002B00D073705B460C706B73C3
:101C30005C4513D0F0BCBB46B246A946A046F8BDF1
:101C40005B465B005B44033BD3189C709119925D2B
:101C5000002A00D05A705B460B706C734A464346AC
:101C6000387D00F0AFFB051E0AD10E9B002BE1D0A2
:101C70001D70DFE7660029683619033E8919ABE756
:101C80005346002BF1D12100386800F0C5FDECE788
:101C9000FFFFFF0FF0B5DE4657464E464546002390
:101CA000E0B58BB00893674B8200D45800239B4665
:101CB000099000F027FB02000B006068EFF3108A28
:101CC00072B6564601680029FCD0B246BFF35F8F5A
:101CD00021684F7B8C46002F2ED0A5685A49A94613
:101CE00079180901894449460868496805000E00C9
:101CF000AD1A9E41002E5FDD02000B00099800F036
:101D000061FB0023002299460023069207930023DB
:101D100098466368BFF35F8F5A461A608AF310884B
:101D20004346002B12D10028C3D10BB0F0BCBB46F8
:101D3000B246A946A046F0BD0023002299460023E2
:101D400006920793002300209846E2E7089B494645
:101D500018023843C047626805000E00EFF3108A8E
:101D600072B61368002BFCD0BFF35F8F002E40DBF0
:101D70002B00334302D02369002B55D12368D97B34
:101D8000002905D01A68480041185218033A5770C4
:101D90009A7B002A00D19F73DF73E268013FD35D15
:101DA0000133D3555B4623616368BFF35F8F5A46A7
:101DB0001A608AF310887CE7002E01D1002D9BD198
:101DC0000021604600F0A6FC4B461A685B6806924C
:101DD00007934B469B6898464B46DB689946E368F9
:101DE000DB19013B1B7808931B020343236100208E
:101DF0008FE72369002BC1D0069A079B8021521BD5
:101E0000B34109068B4202D30122104B52420021FA
:101E10000491013103914946019141462000029706
:101E20000091FFF7B7FEBDE700F06CFA2A0033001F
:101E300012184B41802109068B42E8D30122034B43
:101E40005242E4E7ECC60020FFFFFF0FFFFFFF7FD9
:101E500010B5144C6368002B04D00A211248FFF718
:101E60002BFE10BD2300114A1021206800F068FBF2
:101E7000032000F03BFA032000F012FB03200C4982
:101E800000F05AFAFFF7C2F80A4B9C460323237569
:101E9000D0231B061B6860446375074B800060609D
:101EA000DC60DAE710100020DCD70020311B0010C6
:101EB000951C001040000034ECC60020004870471C
:101EC00010100020F0B557464E464546DE46E0B5B8
:101ED00085B0019310AB1B780600039300239A464C
:101EE000984600927268EFF3108B72B61368002B5D
:101EF000FCD0BFF35F8F3568AC7B002C00D16FE066
:101F000067002B683F19033FDB195A78AA73002A30
:101F100000D1EA734B4AA118B2680901521800981F
:101F20000199106051600E9991600F99D1604246FD
:101F30009A705A701A706B7B9946002B00D170E032
:101F400022004946A8686B6898472A6800285BD039
:101F50004B4648465B004B44D719033BB870D11839
:101F6000D35C002B00D07B704B460C706B734C45E0
:101F700058D0F3681B19013B18787368BFF35F8F63
:101F800042461A608BF310885346002B08D100029A
:101F9000204305B0F0BCBB46B246A946A046F0BD02
:101FA000039B002B4BD00E9B00200F9998470300FA
:101FB00004000D000B4342D000291ADA009A019B5D
:101FC000121BAB410092019380221206934204D36C
:101FD00001231D4C5B4200930194039B9A4681E7C9
:101FE0007368BFF35F8F1C608BF310880120404241
:101FF000CFE700F087F9802224184D4112060094A3
:1020000001959542E9D3E3E74B465B004B44033B24
:10201000D3189C70D119D25D002A00D05A704B465B
:102020000B706C73307D009A019B00F0CBF98246F7
:1020300000289ED02100306800F0EEFB99E70020D8
:10204000A7E7C046FFFFFF0FFFFFFF7FF8B50B00BC
:1020500004004168EFF3108572B60A68002AFCD0CC
:10206000BFF35F8F2068D9B2427B8A4209D0FF2636
:102070001E4002687700BE199219033A9278002A2E
:1020800012D0FF26E2681E409219013A1B0A12780C
:10209000DBB29A420DD000206368BFF35F8F00224D
:1020A0001A6085F31088F8BD21699942F3D1226145
:1020B000F1E700F0B1FBEFE7407D7047F0B50400B9
:1020C0000D0006267642F717C64636196F4100B551
:1020D00084B08F4214D811D000F014F932003B00C4
:1020E000121A8B41002B15DC002B3ED0200029005A
:1020F00000F012F904B080BCB846F0BD8642EBD9BE
:102100000026002700F0FEF832003B00121A8B4137
:10211000002BE9DD002302930193154B320000935D
:1021200014483B00FFF7CEFE0028DFDB0023984673
:10213000BC46114A114F7B6A9C4504D8B96AB1422A
:10214000D4D29C45D2D11168EFF3108072B60B68DF
:10215000002BFCD0BFF35F8F1368BFF35F8F414646
:10216000196080F3108820BFE5E7002ABED0D1E7D0
:10217000651B001010100020DCD700200040054037
:1021800070B5060000F0BEF8FA2204000D0000232E
:1021900030000021920010F02BFF802300196941CC
:1021A0001B06994202D3012002494042FFF786FFF5
:1021B00070BDC046FFFFFF7F70B5EFF305830500DC
:1021C0000C0084B0002B0AD0164A0020536A9C42AF
:1021D00003D8926A0130AA421FD304B070BD124ED8
:1021E00002930193114B0200009330000B00FFF7A4
:1021F00069FE011EE8DD20BF3000FFF727FF094B15
:1022000000205A6A9442E8D89B6A0130AB42E4D27B
:10221000A41A631E9C41E0B2DFE7E31A5A1E934101
:10222000D8B2DAE70040054010100020651B00100E
:10223000F0B5EFF30582D6464F4646461000C0B5CE
:102240001038EFF3108872B6214C2368002BFCD0B5
:10225000BFF35F8F0123190081401E4D1F0069638A
:10226000AA461D4D29601D4D2E78AC463500C5404F
:102270002F402B4215D053465F6A194B8500EB580F
:102280009F4218D36246174B8E43EB581670BFF32C
:102290005F8F0022226088F31088002B06D09847B9
:1022A00004E0BFF35F8F276088F31088E0BCBA4674
:1022B000B146A846F0BD0C4B92009C4662441368A0
:1022C0001360BFF35F8F0023236088F31088EDE76E
:1022D000280100D0004005403C70054068D800202F
:1022E000E8D70020F8170020D03F054010B5034B79
:1022F00001001800024AFEF7EFFD10BD57D800207C
:10230000905A0110034B596A0A00986A596A8A4226
:10231000FAD1704700400540064A536A9942FCD8FA
:1023200007D1044B02E05A6A914202D19A6A824272
:10233000F9D370470040054070B504000D00EFF37D
:10234000108672B61A4A1368002BFCD0BFF35F8F59
:10235000002D1BD02000FFF7F1F8164981420AD06A
:102360002000FFF7F3F801212000FFF7B7F8012361
:10237000A340114A1360114BA400E550BFF35F8FD7
:1023800000220B4B1A6086F3108870BD0121A1401A
:102390000A4BA200D5500A4B20001A788A430549FF
:1023A0001A70FFF7F7F900212000FFF797F8E5E72B
:1023B000280100D03122001038600540F8170020B5
:1023C00068D80020F0B54F46D6464646C0B507004F
:1023D0002E4C616A0D00A66A616AA942FAD18B424D
:1023E00008D805D00120E0BCBA46B146A846F0BDE9
:1023F000B242F7D9EFF3108A72B625480168002976
:10240000FCD0BFF35F8F0125BD4022491F4C884699
:10241000097889462943C9B28C464146604608700E
:10242000391D890065630A511B49B8004350216A70
:102430000020294219D0616A0800A66A616A8142B7
:10244000FAD18B4219D801D1B24216D8CC450BD063
:102450000E4B1F221D625D6301233A4093400F4AD9
:10246000136043464A461A700120BFF35F8F002273
:10247000074B1A608AF31088B5E70020BFF35F8F1F
:102480000022034B1A608AF31088ACE70040054035
:10249000280100D068D80020E8D7002080E200E0C2
:1024A000EFF3108C72B60A490B68002BFCD0BFF317
:1024B0005F8F01238340074A0748136202789A43DB
:1024C0000270BFF35F8F00230B608CF3108870479E
:1024D000280100D00040054068D8002070B50500F4
:1024E0000E001400002923D0002A12D080686B68E7
:1024F0009847296800280ED063001B197200033B1F
:102500009219CB18033A9E7088188A5C002A11D160
:102510000470300070BD73009B196200033B1219F8
:10252000CB18033A9C7088188A5C002A05D1067083
:102530002000EFE75A700470EBE75A700670F7E777
:1025400030B583600023CCB243730133047342601F
:102550008373C4730D000068012C06D9421C01333B
:10256000DBB2137003329C42F9D1FF2129404B00AA
:102570005B18C01800230338437030BD70B50500E8
:102580000C1E07D0630001681B19033BCB185A7857
:10259000002A01D1200070BD5000801803380918AE
:1025A00000204E784870210058702800FFF796FFF1
:1025B000310004002800FFF7E1FF0600002C26D0C0
:1025C0000028E7D021003200A8686B689847296886
:1025D00000280ED073009B196200033B1219CB1820
:1025E000033A9C7088188A5C002A00D05A700670E2
:1025F000D0E763001B197200033B9219CB18033A12
:102600009E7088188A5C002A00D05A7004703400CA
:10261000C0E7C046F0B557464546DE464E46E0B5F3
:102620000D006F0001687F19033F0400C85D83B08F
:102630000192CA19002850D043001B18033BCB1845
:102640005E78B446002E1AD1019E002E42D0E67B61
:10265000002E04D073009B19CB18033B5D70A37B45
:10266000002B00D1A573E57300282FD100235370F0
:1026700003B0F0BCBB46B246A946A046F0BD72000E
:102680006244033A8A18517888460021517089467D
:102690005970320001002000FFF720FF43468246B8
:1026A000002B07D05B0021684344033BCB185A78CA
:1026B000002A16D1424651462000FFF70FFF21683D
:1026C000019BCA19002BC2D10028CFD043001B1890
:1026D000033BCB1800219970C8E7019B002BB6D1B2
:1026E000C4E75000801803380918487883464846E4
:1026F0004870587041462000FFF7F0FE594680466A
:102700002000FFF73BFF414602002000FFF7E6FEF6
:102710008046CFE7F0B557464546DE464E46E0B523
:1027200083B00191457B04006F0000687F19033F6F
:10273000C15DC219002952D04B005B18033BC3187E
:102740005E78B446002E1CD1019E002E44D0E67B5C
:10275000002E04D073009B19C318033B5D70A37B4C
:10276000002B00D1A573E573002931D10023280087
:102770005370617303B0F0BCBB46B246A946A04695
:10278000F0BD72006244033A8218507880460020FF
:1027900050708146587032002000FFF79FFE43467C
:1027A0008246002B07D05B0021684344033BCB18D3
:1027B0005A78002A17D1424651462000FFF78EFE74
:1027C000019B01002068C219002BC0D10029CDD087
:1027D0004B005B18033BC31800209870C6E7019BB1
:1027E000002BB4D1C2E7500080180338091848788C
:1027F000834648464870587041462000FFF76EFEF9
:10280000594680462000FFF7B9FE414602002000ED
:10281000FFF764FE8046CEE770B5050000292CD096
:10282000437B8B422ED04C0000686418033C041993
:10283000A278002A21D053009B18033BC25CC61823
:102840008A4202D11BE0002A08D053009B18033BA8
:10285000C3185A788A42F6D162785A70002301224E
:102860002800A3706370FFF7D5FE697B0200280083
:10287000FFF734FE6873012000E0002070BD63782C
:102880003370EBE701221900FFF7C4FEF2E7C04600
:10289000F8B504000C2017001D000E0010F03AF8E7
:1028A00043011B1A9901C91AC90009188901380086
:1028B00010F030F8069B29041B0319432368002BF2
:1028C00020DB194B194DE3185A4253418022520123
:1028D00094461B03164A63441360164A13601F0094
:1028E000AA689743FBD1C023221D9B0113432122D9
:1028F0002660A0601A602268002AFCDA0822E160E3
:102900001A60F8BD3F2322681340B342D9D1A368AF
:102910001B051B0D8342D4D1EE22E368D202134083
:102920008B42CED1EDE7C0460040FDBF00C0004065
:1029300000E0004000F000408023024A9B00034377
:10294000D36270470080054010B580241C4BE4051D
:102950001C6000281AD001231A4C18431A4BDC6162
:102960001A4C44401C62596298628021144BC9057C
:102970001960174817490860E021C9041960002A46
:1029800007D18022144B12061A6010BD0E4BD8617D
:10299000EBE753019B1A9B009A18802312015B04FA
:1029A0009A4209D213000D490B60074B5A608022EE
:1029B000094BD2051A60E8E7094B1A00F3E7C04655
:1029C00000B00540D3C007B0008005402D3FF84F50
:1029D000FCFF01000820014000A005403C2D002024
:1029E000FFFFFF00AA23064A1B0113602F2305499E
:1029F000D360054B19605368002BFCDA7047C04662
:102A00000040024000B0FA000060024010B501F042
:102A1000F9FB00F059FB00F015FD00F0B9FD05F0E1
:102A20009BFC01F07FFC00F085F905F007FC10BD70
:102A300040BA80B27047C04600BA7047F0B5C6468B
:102A4000584D04002B68884600B5002B03D02A7A25
:102A5000824200D17CE0544E2701EB68002B02D06B
:102A60002A7DA2426AD0AB69002B03D02022AA5C47
:102A7000A24259D06B6A002B03D02C22AA5CA2423E
:102A80002CD03B191B01F318DB7B002C35D0B27A1C
:102A9000022A68D0012C35D08D225200B25C022A65
:102AA00000D172E0022C31D0404AB25C022A00D13F
:102AB00072E0032C2AD1032B0DD83D4D9B005859B1
:102AC00005F044FF00223F193F01F719FB7B9B00F3
:102AD0005A510423FB7380BCB846F0BD381900017D
:102AE00010304146AA6A3018984700236B623B19A0
:102AF0001B01F318DB7B002CC9D18D225200B25C84
:102B0000022A3BD0294AB25C022A32D0294AB25C5E
:102B1000022AD0D1284AB25C9A42CCD104223B1975
:102B20001B01F318DA73D6E738190001103041465B
:102B3000EA69301898470023AB619BE73819000118
:102B4000103041462A69301898470023EB608AE725
:102B500007013818144E000110306A683018984781
:102B600000232B6079E7F27B9A42D7D0012C93D1D6
:102B7000C8E7124AB25C9A42C8D1CFE72022FF329E
:102B8000B25C9A4200D08FE7C8E72022FF32B25CE5
:102B90009A4200D086E7C1E7084AB25C9A4200D068
:102BA00087E7BBE788240020C02400202A02000019
:102BB000782400203A0300003F0300002F020000A9
:102BC000564BF0B54546DE4657464E4698460301FD
:102BD000E0B59B461D1843462D015E19F37A0700A8
:102BE00089B0012B00D996E04D4A9B00D458019240
:102BF000002C00D185E010354544280012F048FE35
:102C0000A022123081B29200362000F0E3FE81460D
:102C1000002869D005AC0C220021200010F03EFAFB
:102C20003089FFF705FF01232080A3700C22FF33BA
:102C300021004846A38001F07FF93A4B0C269A46C2
:102C40004346013D029703936A786F1C3B000024C2
:102C50002E2A07D15AE05A780134E4B2591C2E2AA0
:102C600049D00B00002AF6D1DA1B92B290461D0023
:102C70002200B218524534DC22003100484601F0EF
:102C800015FA731C9BB2A41942463900484601F05C
:102C90008FF9A4B22B78661CB6B2002BD4D1039B5B
:102CA0000022310048469846029F01F0FFF91E4B72
:102CB00002340422049304A9A3B2484601F078F92F
:102CC0003B0001995B448C461B014344DA7ADB7B71
:102CD00016499B009200585862443523494605F036
:102CE000C3FD484600F0D2FF09B0F0BCBB46B24677
:102CF000A946A046F0BD5B1B9BB2984622000D0082
:102D0000B7E70021FFF79AFEB472EDE700233D001C
:102D100000229846ADE706480EF08EFAC024002047
:102D2000B8240020FEFF00000001000178240020EC
:102D3000B45A01107047C046012800D97047054BAE
:102D40008000002902D00A68C250F7E7024A1268E0
:102D5000C250F3E7B8240020FC720110F8B5DE463B
:102D600057464E4645460223E0B5474E00253400FF
:102D70009B460027A37A022B39D030D8002B22D0D3
:102D80008D235B009846414B9946414B9A46FDF78F
:102D900085FFB37A80B2022B41D04346F35C022B0D
:102DA00044D04B46F35C022B49D05346F35C022BD4
:102DB0004ED05B46A37201232081E7722800237363
:102DC0006773FFF7FDFE01351134EDB2FF34042DBA
:102DD000D0D1F0BCBB46B246A946A046F8BD032BF5
:102DE0004FD12368002B13D10023A372EBE7237B81
:102DF000013BDBB22373002BE5D1637B0133DBB2F4
:102E00006373042B2AD023732800FFF7D9FEDAE777
:102E1000013B2360002BD6D10023A372D3E7338973
:102E20008342B4D04346F35C022BBAD11733FF334D
:102E3000F35A8342ABD04B46F35C022BB5D18A23C5
:102E40009B00F35A8342A2D05346F35C022BB0D1CD
:102E5000CE239B00F35A8342ABD198E7E37A002B51
:102E600008D10C4A5268002A04D001226373E2722E
:102E70002273C9E700212800FFF7E0FD0023A372B9
:102E8000A1E705480EF0D8F9C02400202A0200006E
:102E90003A030000B8240020E85A01100123F0B5DD
:102EA0001E0000250640184205D0002953DD057894
:102EB00001392D020130032213000340104251D189
:102EC000072957DD072208390F0091430A00010046
:102ED00004000831891822689A189A429B415B4283
:102EE000D21863680834D3189342924152429B1817
:102EF000A142F0D1F9084A1CD2008018C9001A0476
:102F0000791A120C1B0C9B18012910DD02889B18E2
:102F10008A1E012A05DD44881B19052901DD8188E7
:102F20005B1851084C1C640049000019511A012912
:102F300004D10278FE318D431543ADB2ED182B0C50
:102F40002D042D0C5B19180C1B041B0CC018002E33
:102F500002D180B2F0BD0020030600041B0C000E5D
:102F60001843F6E7012903DD038802390230A7E799
:102F70000023DCE71A00C5E7F8B557464E46DE46A3
:102F80004546E0B591460A9A8A4611681B680A04CC
:102F9000120C090C52181904090C52181B0C9B181E
:102FA0001A0C1B041B0CD3181F0C1B041B0C040055
:102FB000FF18002825D000239B46FF3301269846A2
:102FC000658960682900FFF769FFC019070C0004D4
:102FD000000C3F182E4209D05B46414673403A062A
:102FE0009B463B0A120C0B401A4317002468002C26
:102FF000E6D15B46002B04D03A063F04120C3F0E8C
:1030000017435046FFF714FD04004846FFF710FD34
:103010002318DB191A0C1B041B0CD318180C1B04E7
:103020001B0CC018C04380B2F0BCBB46B246A946D8
:10303000A046F8BD10B582B0049C0094FFF79CFF39
:1030400002B010BD10B5FFF729FFC04380B210BD1C
:10305000F8B5CE464746040080B500282FD000239F
:103060009946FF3300270126984665896068290044
:10307000FFF714FFC019070C0004000C3F182E4284
:1030800009D04B46414673403A0699463B0A120C1A
:103090000B401A4317002468002CE6D14B46002B46
:1030A0000AD038063B04000C1B0E1843C04380B204
:1030B000C0BCB946B046F8BDF84380B2F8E7014855
:1030C000F6E7C046FFFF00000322094BFA219343B5
:1030D000084A0901136000221A71074A5818106043
:1030E000012219600271054A5A50054A136070475F
:1030F00007C70020FCC6002000C70020A00FA00FBB
:10310000382D0020F0B5D6464F464646C0B50028BB
:103110005DD0830700D079E003003E4A083B126887
:103120009A4200D96CE03C490C300C68844267D369
:103130001979002967D0FA2019885E880001814238
:103140000BD8864209D8981A80B2804690198246D8
:10315000B04505D00088404502D030480EF06CF8EC
:103160005018844238D045884545F6D100251D7158
:103170002B4DAC462D689D4202D965462B601D0043
:103180009C4232D9834212D00779002F0FD184425A
:103190000DD0A84230D00188FA2019800001814268
:1031A00005D04446501844805E88901982465345A5
:1031B0000DD050460079002809D1AB4218D05346B3
:1031C0001980FA231B01994201D052185680E0BCA5
:1031D000BA46B146A846F0BD00251D71104DAC465B
:1031E0002D68AB42C9D39C42CED80E480EF024F8CD
:1031F000634650461860E2E761461D000B60CAE76F
:1032000009480EF019F809480EF016F808480EF0B3
:1032100013F8C046FCC6002000C70020705B0110F8
:10322000382D0020A45B01102C5B0110485B0110BD
:10323000085B0110F0B5C646364ACB1C00B51340FA
:103240000B2B3CD9FA22120193423BD8994239D830
:10325000314A1668864254D8304A1268824250D9A0
:103260000400083C2588A11B2A0089B2083A521A9A
:1032700092B29A4248D31FD07719BC463F79002FAB
:1032800022D1FA221201954241D0624617880A00E3
:10329000234D08329B182A689BB262452ED0F21843
:1032A0000025178015715180FA21238012880901A9
:1032B0008A4201D0B218538080BCB846F0BD0C23BE
:1032C0009942C5D90020F7E71F001437BFB2BA42B0
:1032D000F2D30A0008329B18FA229BB298461201D8
:1032E000954214D00E4FF2183B68934200D93A60D1
:1032F00000274346177115805180D5E7F2182A60E0
:10330000CEE708480DF098FF07480DF095FF0748F5
:103310000DF092FFFCFF0000FCC6002000C700205B
:10332000382D0020C05B0110D85B0110F85B011044
:10333000F0B5D6464F464646C0B500282FD03A4B8A
:10334000C41C1C400B2C30D9FA231B019C4226D8EC
:10335000A04224D8354BFA229C461B6812019A469B
:10336000334B121B1E6853469B1B98B21B0490469E
:103370001B0C934213D208277F4208E01588FB1AE2
:103380005B19A34213D22B002800984507D9F218E5
:1033900011790029F2D0108803009845F7D8002051
:1033A000E0BCBA46B146A846F0BD0C24D0E71427CD
:1033B000B846A04443451BD20123083413711D4B6A
:1033C0001868130092450ED01419A04225D310009E
:1033D00008309207E4D018480DF02EFF1B88F31830
:1033E0001979002901D09842F8D161460B60EBE7CA
:1033F000FA27083403193F019BB2B946BB420FD0EC
:10340000F718397101213D80788013801171398856
:103410004945D4D071184B80D1E708480DF00CFF16
:1034200007480DF009FFC046FCFF0000382D0020C2
:10343000FCC6002000C700203C5C01100C5C0110A1
:10344000F85B011024230022F0B54746CE46904693
:103450009946033204249446124E80B5124B134F02
:10346000B144414632683960614603338B43002CD6
:103470000BD015880021002200E003000132196002
:1034800058191900A242F8DB3B600436B14504D05C
:103490003268976853685488E3E7C0BCB946B046C1
:1034A000F0BDC046C45C011078BE0020A0C600205C
:1034B00010B5082812D80C4B8000C458FDF742F80C
:1034C000A3681C68002C07D022681A60A30707D1E4
:1034D000FDF73AF8200010BDFDF736F80024F9E7B3
:1034E00002480DF0A9FEC046C45C0110805C0110CA
:1034F00070B50C0008280ED800290CD0084B8000AD
:10350000C5588B0708D1FDF71DF8AB681A68226013
:103510001C60FDF719F870BD02480DF08DFEC04625
:10352000C45C0110A45C01100C2040427047C046EE
:1035300070B5436816000A6804000D0082B09A4214
:1035400001D102B070BD3360300001A9019201F0D9
:103550007DFE300001A905F025FA01A9300000F038
:1035600031FE392329686160E25C343B1340052B4E
:1035700005D0E369002BE4D020009847E1E700295B
:10358000F7D01207F5D52000211D07F075FBF0E7F5
:103590007047C046F0B54746CE4680B504000F00E0
:1035A0009146984683B0002800D180E00B9B002B09
:1035B0007DD0002900D18FE04B46002B00D188E060
:1035C0004346002B00D181E0474B00256361002278
:1035D000392320006560A560E56025860021E2545E
:1035E000283004220FF05AFD0A9B404E63623C23B0
:1035F0003278E5612562E2540C9B23613B68002B25
:103600005BD00021002000224B461B68984200D06E
:10361000A36043461B6899423CD1002A3DD020005C
:103620000B9B9847002842D1314B9C461F683C2396
:10363000E55CFF2D18D03C20002F1AD0BC424FD0A3
:103640003B00FF2207E01B68002B12D09C4247D0B2
:10365000013A002A17D0195CA942F4D10135EDB224
:10366000FF2D13D02554E9E7E05400253C20002F1E
:10367000E4D1FE2D32D00135EDB263462760200043
:1036800035701C6014E01B480DF0D6FD00230025AA
:103690002354D3E7E360002AC1D12000390001AAF6
:1036A000FFF746FF20000B9B98470028BCD0002066
:1036B00003B0C0BCB946B046F0BD3900200001AA35
:1036C000FFF736FF0122A068E1689DE70A4B9846A4
:1036D0007AE7094B994673E7074F6DE70025CCE77A
:1036E00006480DF0A9FDC0462935001060D800201D
:1036F000C0C60020685D0110FC720110545D01100D
:10370000F0B504000D0017001E0083B0002922D080
:10371000002F23D0002E24D02B680022002B15D0A0
:103720003B68A1688B4200D0A3603368E1688B429C
:1037300003D1002A04D003B0F0BDE360002AFAD11F
:103740006A4629002000FFF7F3FEF4E76268002ACA
:1037500009D10122E4E7164D002FDBD1144F002ED2
:10376000DAD1134ED8E7684601A90193009201F01F
:103770006DFD684601A905F015F901A9684600F03C
:1037800021FD39232A686260E15C343B0B40052B44
:1037900007D1002A05D0090703D52000211D07F015
:1037A0006BFAE369002BD4D0200098470122B7E7D9
:1037B000FC72011070B5041E16D04368002B17D19F
:1037C00039220121A35C194224D11D4B1A68A2425F
:1037D0002ED01C4A1368A34204D126E01A68A242E4
:1037E00003D01300002BF9D170BD22681A60FBE7EB
:1037F000051D0021280001F029FD0021280005F009
:10380000D1F80021280000F0DDFC39220121A35C61
:103810001942DAD018008843A0541B070BD4E3697F
:10382000002BD2D020009847CFE723681360DBE756
:1038300000221A60CDE7200006F07CFEEFE7C046CC
:10384000BCC60020C0C60020014B18607047C046AF
:10385000BCC6002070B5041E15D03925435DDA07BB
:1038600011D401221343DBB24355C269002A01D0AF
:103870009047635D05221A40052A04D16268002A38
:1038800001D01B0700D470BD2000211D07F0F4F902
:10389000F9E7C04670B5041E03D03925435D5A07C9
:1038A00000D570BD04221343435505F085FF052361
:1038B000625D1340052B05D0236A002BF1D0200058
:1038C0009847EEE76368002BF6D01207F4D5200086
:1038D000211D07F0D1F9EFE710B500280AD03922F1
:1038E0000421835C194205D08B438354036A002B67
:1038F00000D0984710BDC046021E0ED0084B186875
:10390000002809D03C2102E00068002804D0435C74
:103910000133DBB29342F7D170470020FCE7C04689
:10392000C0C60020F8B505000026002826D00F27C5
:103930000BE0012B24D0002B2AD12800FFF7E2FB5B
:103940000136F6B2002C19D02500FCF7FBFDAC7B4C
:10395000002C1AD0013CE4B2AC73FCF7F5FD002C4E
:103960000CD12B7B2C683B40022BE2D12900082094
:103970000136FFF7BDFDF6B2002CE5D13000F8BDF1
:1039800029000720FFF7B4FDDAE703480DF054FCE7
:1039900002480DF051FCC046985D0110B05D011069
:1039A00010B5FCF7CFFD0022084B1A70FCF7CCFDD8
:1039B000074B1868002803D107E0C068002804D02E
:1039C000436F002BF9D001F08FFC10BD62D80020AE
:1039D000F8D700200023F0B54F4699460B040B435F
:1039E000D64646469846C123C0B582460D0017000C
:1039F00004005B009A423FD008D81400433BFF3BD1
:103A00009C43012C6AD03D480DF016FCA0239B007E
:103A10009A42F8D10300032403330335A343A5439B
:103A20005B199BB21800103080B2AB421DD38542A7
:103A30001BD8FFF77DFC061E18D04B46036053468B
:103A4000C7184346133783602D4BA7434760C360B5
:103A50000CE0FCF777FD01222A4B1A70FCF774FD8D
:103A6000002E02D03000FFF75DFF00263000E0BCE2
:103A7000BA46B146A846F0BD00239846224B002620
:103A80009A4600230327994607E04246ED1AADB255
:103A90001060002DEAD0804600240820FFF708FDC2
:103AA0000028D6D05246E31CBB43D31A1A1C9BB243
:103AB000AB4200D92A1C4946041993B213344281FF
:103AC000124ABC43016044600581C260002EDCD113
:103AD000ED1AADB20600002DDDD1C7E70720FFF7D4
:103AE000E7FC061EC2D04B4603604360434683603A
:103AF0004B4607734373C481B8E7C046C45D0110E9
:103B00008000010062D80020EC0500008200010066
:103B100070B5041E33D002898A421BD98A1A07E085
:103B2000C91A238989B29B1823812468002C20D0CC
:103B300063898B42F4D3227B0D040D43120701D11C
:103B40008B4208D12068A560002801D0FFF7EAFE6B
:103B50000023236070BD636820001B1BC91889B255
:103B6000FFF768FB002807D08442EBD005480DF032
:103B700063FB05480DF060FB04480DF05DFB044855
:103B80000DF05AFB2C5E0110F85D0110105E011063
:103B9000E05D0110030070B500281ED080225202A3
:103BA000914218D2002914D002898CB2A21892B284
:103BB000944210D8057B01207F2D0BD95D68691ACE
:103BC0001D001035A94205D3596059891A8164181E
:103BD0005C81002070BD0120FCE701480DF02CFB4A
:103BE000485E011010B5002815D080235B02994271
:103BF0000FD200290BD043898AB29A4209D89B1A66
:103C000044684381038961189B1A41600381002045
:103C100010BD0120FCE701480DF00EFB485E0110CD
:103C200010B5002915DB00282BD000290FD00389FF
:103C30008AB2D3189BB29A4221D8047B7F2C18D821
:103C40004468611A41604189038152184281002011
:103C500010BD002815D0494243898CB29C420ED831
:103C60001B1B42684381038952181B1B426003815E
:103C7000EDE74468611A04001034A142E2D2012049
:103C8000E6E701480DF0D8FA485E011010B50028AB
:103C900002D0FFF747FE10BD01480DF0CDFAC04637
:103CA000485E011003000020002B04D01B68013087
:103CB00080B2002BFAD1704710B5041E09D0FCF772
:103CC00041FCA37B0133A373FCF73EFCA37B002BD9
:103CD00000D010BD01480DF0AFFAC046545E01108F
:103CE00010B5002816D0002914D00268002A01D18E
:103CF00011E01A0003890C891B1903811368100055
:103D0000002BF6D110895389834206D108891160AE
:103D10001B18138110BD0200F4E701480DF08CFA66
:103D2000685E011010B50C0000281FD000291CD0BF
:103D30000368002B07D002892189521802811800DC
:103D40001B68002BF7D102894389934211D1228944
:103D500004609B180381FCF7F5FBA37B0133A3737D
:103D6000FCF7F2FBA37B002B06D010BD0029FCD092
:103D7000F1E703480DF060FA02480DF05DFAC04625
:103D8000685E0110545E0110F8B54746CE46804685
:103D900080B50D0091461F00002900D17EE00B89FF
:103DA000934200D27AE0002800D177E04B460289A6
:103DB000FB189A4200DA71E0002644896B89E41B03
:103DC0009B1B9C4200D91C004C4500D94C464346E5
:103DD000696858682200C01989190FF065F94B46C7
:103DE0003F1936191C1BA3B2994643465C89BC4255
:103DF00057D36B89B34257D303D12D680026002DCA
:103E00002FD0BC420FD06A892B899A4223D04346D7
:103E10001B89A34217D04B46002BCFD10020C0BC3A
:103E2000B946B046F8BD43461B689846002B25D0DE
:103E30006A892B899A420DD043465C8943461B8987
:103E40000027A342E7D143461B68002BE3D006209E
:103E50004042E4E700272B68002BF8D143465C89F9
:103E6000D5E74B46002B19D1BC42D0D143461B6845
:103E70009846002BD2D037005C89C8E74B46002B10
:103E80000CD16A892B8900209A42C8D12B68063050
:103E90005A4253415B4218400638C0E71020404266
:103EA000BDE703480DF0C8F902480DF0C5F9C0465A
:103EB000985E0110B05E011010B5002904D00023F7
:103EC0000A89FFF761FF10BD10204042FBE7C046A2
:103ED000F0B5C646050088461700002600B5002844
:103EE00026D0002924D0002F05D121E02D681B1BEE
:103EF0009BB2002D1CD06C89002B01D0A342F5D2BF
:103F0000E41A221CA4B2BC4200D93A1C94B2424624
:103F100069683F1B9019C9182200A619BFB20FF09B
:103F2000C3F8B6B22D68002F02D00023002DE2D1D5
:103F3000300080BCB846F0BDF8B5CE464746050017
:103F40008846914680B5002824D0002922D00389D4
:103F500093421CD316000027002A02D112E0002D44
:103F60001BD06C89B44200D9340043466868D91923
:103F700022000FF099F8361B2D683F19002EEED164
:103F8000B9450DD10020C0BCB946B046F8BD0120EE
:103F90004042F8E710204042F5E703480DF04CF9A5
:103FA00002480DF049F9C046CC5E0110E45E0110F4
:103FB000F0B5D6464F46464604008A46C0B50028AE
:103FC00005D145E024685B1B9BB2002C40D065897D
:103FD000AB42F7D221899F18B94239DB9D4240D9C3
:103FE000E91A8A422EDD60688AB2C01851467F1BEA
:103FF00090460FF059F8BBB29946002B1CD02568AB
:10400000002D2BD02B894B4522D34F46002601E0B3
:10401000002D20D06C89BC4200D93C004346991940
:104020006868220051440FF03FF83F1B2D68361995
:10403000002FEDD1B14517D10020E0BCBA46B14602
:10404000A846F0BD60685146C0180FF02DF8F3E7A0
:1040500001204042F1E706480DF0EEF81020404202
:10406000EBE704480DF0E8F803480DF0E5F8C0462A
:10407000CC5E0110FC5E0110E45E01100B0070B517
:10408000150011891A00FFF7A5FC041E06D00023B5
:1040900029002A89FFF778FE002801D1200070BD91
:1040A00001480DF0C9F8C046145F011005E04389CE
:1040B0008B4205D8C91A006889B20028F7D1704729
:1040C00043685A54FBE7C046F0B557464546DE46BE
:1040D0004E468146E0B5374F83B03968786907F0BE
:1040E00059FF4B465968344B80469A461C6800235A
:1040F0004D7A9C46002C3CD001339B46534600260B
:10410000019304E0E3682600002B32D01C00237CDE
:10411000AB42F7D1227A002A06D03C237868C35CF0
:104120000133DBB29A42EDD14346002B29D02368FC
:10413000002BE7D15A46637C1A4203D062683B6980
:104140009A42DFD163699A46002BDBD000914A4640
:104150002100A069194BD047002819D14B46596856
:10416000009B994222D102239C46E3682600002B43
:10417000CCD1604603B0F0BCBB46B246A946A046CF
:10418000F0BD2368002BD5D07A699342BAD1D1E72C
:10419000019B9A46002E06D0E368F36053461B68E5
:1041A000E36053461C6001239C46E2E704480DF09F
:1041B00043F8C0461C2D0020C0D600202C2D002026
:1041C000285F011010B5002811D00268002A0ED017
:1041D00000290CD00B68002B09D0094B1B68002B61
:1041E00005D01C68944203D0DB68002BF9D110BDC8
:1041F0000A681A60DB68002BF9D00268F1E7C04654
:10420000C0D600207047C04610B5041E22D0037DE2
:10421000042B05D0072B0CD0032B01D0002007E086
:10422000200003F0AFF80523002807D0431C0BD073
:1042300010BD03F0A7F80028F8D10923200023754A
:1042400003F0B0FB0020F3E70822638B0020134348
:104250006383EDE701480CF0EFFFC046745F011087
:1042600070B50600806F002803D0FFF70FFD002314
:10427000B367746F002C18D06068256800280CD0D4
:10428000FFF704FD21000420FFF732F9002D0AD0CA
:104290002C00606825680028F2D121000420FFF777
:1042A00027F9002DF4D1002373670123F46E5B42DC
:1042B0003386002C16D06068256800280CD0FFF7E4
:1042C000E5FC21000420FFF713F9002D0AD02C0093
:1042D000606825680028F2D121000420FFF708F962
:1042E000002DF4D1346F002C16D0606825680028AA
:1042F0000CD0FFF7CBFC21000420FFF7F9F8002DCC
:104300000AD02C00606825680028F2D12100042022
:10431000FFF7EEF8002DF4D100236822F36633672F
:10432000B35270BD10B5FCF7B9FC044A8004944642
:10433000034B800C6044188010BDC04600C0FFFFD6
:104340003C10002010B5037D0100012B03D002209A
:10435000FFF7CEF810BD01480CF06EFF805F011032
:10436000F8B5031E1BD0048DC16A466A5D8E0F4FDF
:10437000601A80192A1CBD420CD892B2821A07D545
:10438000891B09D48022520291420BD200208CB2A8
:104390005C85F8BD3A1CF0E700240020F8E70448EB
:1043A0000CF04AFF03480CF047FFC046D01600004F
:1043B000945F0110B85F0110F8B500281DD0037D8F
:1043C000012B34D0048D1D4A61188BB293421BD946
:1043D0001300466A458E1A4FC46A0385B218291C19
:1043E000BD420BD889B20919511A11D5A41B1BD48F
:1043F00080235B029C421DD24485F8BD391C89B2E2
:104400000919511AF2D403E09C42E1D81A00E0E7FE
:1044100043850C4B121B9A42EFD90222438B134364
:10442000438303F0BFFAE8E700234385E5E7064846
:104430000CF002FF05480CF0FFFEC046A02D000066
:10444000D0160000670B0000D45F0110B85F0110A8
:10445000F0B5DE46574645464E46E0B5B64D89B006
:104460002B6801332B60B54B9B465A461B78049250
:1044700001331370B24B9A46D346B24B05935B4659
:104480001C68002C00D19CE000232F009946DA46DE
:10449000237D002B00D138E2012B00D13BE20A2B17
:1044A00000D135E2049AA17F1278914200D176E1E1
:1044B000A2774222A25C022B00D137E10B2A00D95D
:1044C000C1E0A122A25C9346002A00D16AE1226FDA
:1044D000002A00D02EE2E26E002A00D127E2A222BA
:1044E000A25C0B2A00D9AEE05946A020964A895C0E
:1044F000225C8A4200D29CE16023E15A002900D06C
:1045000090E0200003F04CFD002800D190E0237DD6
:10451000002201259346062B00D19AE0627A120709
:1045200025D5042B00D063E13A68236AFA21D31A17
:1045300006939423E25804339446E6580433E05833
:1045400049007043604407920EF0E4F90121069B94
:10455000884683420ED8A325635D079A5E43F431F3
:10456000B018FF310EF0D6F9069B834251D85D4654
:1045700000239846666F002E0AD03A68236AD21A42
:104580004023E15E4B005B185B00934200D87AE069
:10459000237D032B00D195E0092B00D1D8E0002D1D
:1045A00000D0A6E1237F627F0133DBB2E568237789
:1045B0009A4200D8DCE0A1462C00002C00D067E72E
:1045C0003D00624F00243968002904D11AE00C0034
:1045D000C968002916D00B7D0A2B00D09EE12B68FC
:1045E0000A6A9B1AF02BF2D9002C00D11AE13B6821
:1045F0008B4200D1A4E1CE68E6600220FEF778FF8E
:10460000311EE8D109B0F0BCBB46B246A946A0466F
:10461000F0BD200003F056FC0028A8D1635D0133F3
:104620006355A4E7200002F0D3FD002800D156E135
:10463000A0230022E254A132A35C062B00D966E736
:104640000133A35463E7012202259346062B00D0D1
:1046500064E7638BDB0600D5BDE0637A1B0700D5FA
:1046600085E7666F002E00D1EAE0236A3A685D466E
:10467000D21A002398464023E15E4B005B185B0092
:10468000934200D984E77068A346346800280CD0B0
:10469000FFF7FCFA31000420FEF72AFF002C0AD0B5
:1046A0002600706834680028F2D131000420FEF73B
:1046B0001FFF002CF4D15C4600236367237D032B8E
:1046C00000D069E73B68226A9B1A282B45D99023C2
:1046D000E5582000FFF7C4FD4B46002B00D198E0C1
:1046E00053461B68A34200D11EE14A46E368D360EB
:1046F0004346002B00D07FE0E36826699846237D7F
:10470000012B00D10DE121000220FEF7F1FE002374
:10471000059C2370002D07D00D2130004942A84789
:104720002378002B00D0E1E0444646E7052A00D874
:10473000C7E601251CE7C04608D8002067D800203E
:10474000F8D7002065D80020476301100CD800205E
:104750003B68226A9B1AF02BB9D8002DB7D1237F72
:10476000627F0133DBB2E56823779A4200D922E702
:104770000023059A237713708C33E358002B0AD05B
:10478000210020699847059B1B78002B00D0ADE0E5
:10479000002800D00FE7200003F004F90BE7A14642
:1047A000E4680AE73022A15E6848228E824202D87D
:1047B000013211B221864022A25E01258A4200DD2B
:1047C000A9E6200002F0EEFE002845D0236F002B62
:1047D0003FD0237D9FE63A68236AD21A282A00D860
:1047E0003FE70023666F9846002E00D0C8E66EE7CC
:1047F000072B00D198E6BAE6238B626A216D0293FB
:10480000E38A20000193231D0093230002F098FF08
:1048100072E753461B68A34200D08EE05246E3681D
:10482000136065E73B688B4200D08CE0CE683E6049
:10483000E3E60132D2B222548A4200D268E65BE655
:104840005B46002B00D1ADE69023E5580023984647
:104850003FE7E36E002BBCD0237D022B14D03C221B
:10486000A35E3E21625EDB109B184222A15C3848A9
:104870000A1C0C292AD8D2B2825C934080221202F0
:10488000934221DA4022A35200234820238660333A
:10489000E15A255A628E0B1CA94200D92B1C9BB2EF
:1048A00050005B0885B2191CAB4200D2011C4A23A0
:1048B000E152023BE25200222233E252200003F096
:1048C0009DFA0125237D26E6224BDBE70C22D2B29E
:1048D000825C9340802212029342D3DBF4E72000F3
:1048E00003F060F8002800D0A2E610E63D00D346B1
:1048F000C5E59022A558002B00D1EDE60A2B00D18A
:10490000EAE6012B00D0E4E6E6E613480CF094FC5E
:1049100012480CF091FC12480CF08EFC11480CF07F
:104920008BFC11480CF088FC10480CF085FC1048FA
:104930000CF082FC0F480CF07FFC0F480CF07CFC64
:104940000E480CF079FC0E480CF076FCFE7F00005F
:1049500050630110FF7F0000FC5F011054600110E4
:104960002860011044610110805F0110EC600110AB
:10497000B4600110806001101861011074610110B1
:104980009C61011070B5041E16D06068256800286F
:104990000CD0FFF77BF921000420FEF7A9FD002DC4
:1049A0000AD02C00606825680028F2D1210004207C
:1049B000FEF79EFD002DF4D170BDC04610B5041E5B
:1049C00008D04068002801D0FFF760F921000420DA
:1049D000FEF78EFD10BDC04670B5051E0DD004203B
:1049E000FEF766FD041E06D0102229000EF05CFBC7
:1049F0006068FFF761F9200070BD01480CF01CFCF5
:104A0000C461011010B5002806D0037D012B03D925
:104A10000A2B01D0FFF724FC10BDC04610B50C1EB8
:104A200047D0002848D003688B4204D12FE0DA68D1
:104A3000A24224D01300002BF9D10023E360237D90
:104A4000002B0FD1638BDA0729D4E36E002B36D10C
:104A5000236F002B36D1636F002B36D100232375D3
:104A6000E38210BD0A2BF0D0012BF7D02000FFF716
:104A7000F7FB237D0A2BE8D0012BEFD0E2E7E268B9
:104A8000DA600023E360237D002BEBD1DAE7CB680B
:104A900003600023E360237D002BE3D1D2E70222F1
:104AA00013436383200002F07DFF237D012BD5D0CB
:104AB000CBE707480CF0C0FB06480CF0BDFB0648EE
:104AC0000CF0BAFB05480CF0B7FB05480CF0B4FB42
:104AD000E0610110FC6101101C62011034620110E0
:104AE00050620110F0B54E464546DE465746E0B5E9
:104AF00005000E0087B0002876D0037D012B00D181
:104B0000B2E00A2B00D19DE0026D9146426A9246C6
:104B100090228258934602699046002B6BD1C38A3B
:104B2000002B00D071E00023002605932C6F002C91
:104B300016D06068276800280CD0FFF7A7F821007E
:104B40000420FEF7D5FC002F0AD03C0060682768DF
:104B50000028F2D121000420FEF7CAFC002FF4D176
:104B6000EC6E002C16D06068276800280CD0FFF788
:104B70008DF821000420FEF7BBFC002F0AD03C007A
:104B8000606827680028F2D121000420FEF7B0FCFD
:104B9000002FF4D16C6F002C16D0606827680028B5
:104BA0000CD0FFF773F821000420FEF7A1FC002FC2
:104BB0000AD03C00606827680028F2D12100042058
:104BC000FEF796FC002FF4D1002E2ED12B7D012B69
:104BD00047D029000220FEF78BFC5B46002B03D058
:104BE0000D2140464942D84707B0F0BCBB46B2460B
:104BF000A946A046F0BDC38A29001D480593FFF7CA
:104C00000DFF01221B4B1A7090E71B4A1368834269
:104C100008D1C36813600023EB6084E7DA68AA4216
:104C20001CD01300002BF9D1F5E72B8B52460293D1
:104C3000059B494601932B1D009328002B0002F091
:104C40007FFDC3E729000D48FFF7E8FE2B7D012B10
:104C500007D029000220FEF74BFCC5E7EA68DA60BE
:104C6000D9E707480CF0E8FA06480CF0E5FAC04628
:104C7000F8D7002065D80020FCD700200CD80020F1
:104C8000805F01106862011010B50121FFF72AFF53
:104C900010BDC046F0B5C646060000B50220FEF7BE
:104CA00007FC041E2AD0A422002120000EF0F6F9F1
:104CB0006423624A6675E252614B4022A362FF237D
:104CC000E372F93BA352E3875E4B443223635E4BAE
:104CD0001B6823625D4B1B78A3775D4BA3645D4B20
:104CE000A35094235C4AE2505C4A0433E250092208
:104CF0000433E250200080BCB846F0BD584B082772
:104D000098461D68002D0AD02800438BED681F428D
:104D1000F8D0BB434383FFF777FA002DF4D1514B12
:104D20001B68002B11D00021474A10681A6A821AAA
:104D3000914201D811001C00DB68002BF6D1002C39
:104D400003D001212000FFF7CDFE0220FEF7B0FBCB
:104D5000041EA8D143461B68002B16D03A4A0021F6
:104D6000106802E0DB68002B09D01A7D092AF9D10E
:104D70001A6A821A9142F5D811001C00F2E7002C41
:104D800003D000212000FFF7ADFE0220FEF790FBCC
:104D9000041E00D087E743461B68002B16D02A4A22
:104DA0000021106802E0DB68002B09D01A7D082A78
:104DB000F9D11A6A821A8A42F5D311001C00F2E76F
:104DC000002C03D000212000FFF78CFE0220FEF70C
:104DD0006FFB041E00D066E773B2002B2BDB002EA6
:104DE00022D0320043461B68013AD2B2002B1BD0BE
:104DF00015490F680021884607E0186A3A1A90465C
:104E00001C000A00DB68002B08D0597D8A42F4D8C8
:104E1000F8D1186A3D1AA845F4D8EFE7002C03D062
:104E200001212000FFF75EFE0220FEF741FB041E79
:104E300000D038E75EE77F22D4E7C046A02D00000F
:104E4000A02DA02DFFFF180208D8002067D8002051
:104E50000100A02DF54F001000DD6D00F8240100C9
:104E6000F8D700200CD8002030B5040085B0002809
:104E700000D19FE0037D002903D0042B0DD0072B28
:104E80000BD0012B00D169E0022B4ED0002B3BD080
:104E90002000FFF7B9F905B030BDA36F002B54D047
:104EA000638BDB0600D488E0238B626A216D02935A
:104EB000E38A20000193231D0093230002F040FCAD
:104EC000237D012B04D90A2B02D02000FFF7C8F95B
:104ED0003D4A1368A34214D1E36813600023012202
:104EE000E3603A4B1A703A4B1B68A34232D0237DE1
:104EF000012B24D137480CF09FF9DA68A24250D038
:104F00001300002BF9D1E9E7E38A002B17D0324ACE
:104F10001368A34204D14AE0DA68A24244D01300E5
:104F2000002BF9D10023E36009E021002648FFF7B8
:104F300075FD0122254B1A70237D012BDAD002204A
:104F40002100FEF7D5FA0020A5E7244B228D9A42D6
:104F5000A6D19DE701F0F4FF00209CE72049002046
:104F60000D000C354B681B68002B05D0DA6F94429E
:104F700012D0DB68002BF9D10431A942F2D1210013
:104F80001848FFF74BFD237D012B19D0032021008A
:104F9000FEF7AEFA00207EE7D867DB68002BE5D18C
:104FA000EAE7E268DA6099E7E268DA60BAE7E368BC
:104FB0001360B7E70C480CF03FF90C480CF03CF9D3
:104FC0000B480CF039F9C046F8D7002065D800200E
:104FD00000D80020805F0110FCD70020A02D000029
:104FE0003863011004D800209C620110BC620110DB
:104FF000D8620110F0B5C6460800140000B50029BB
:105000004AD0002A2CD013890A7D012A47D0098D65
:10501000264A5B189BB293421ED913009046476AFA
:10502000468E234AC56A0385B844311C964200D98E
:10503000111C424689B24919511A21D5ED1B1CD4C5
:1050400080235B029D422DD245852000FEF71EFE87
:10505000002080BCB846F0BD9942DED81A00DDE7DA
:10506000002BF5D10B7D012B03D010224B8B13436A
:105070004B830121FFF7F8FEEBE700234385E4E7CC
:1050800043850C4B521B9A42DFD90222438B1343B8
:10509000438302F087FCD8E710204042D9E7064856
:1050A0000CF0CAF805480CF0C7F8C046A02D000067
:1050B000D0160000670B0000D45F0110B85F01102C
:1050C000F8B5041E32D00023866F777B8367843364
:1050D000C558002D0CD00023320021000069A847DC
:1050E00000280BD00D301ED00520A6674042F8BD29
:1050F0003189FFF761F93000FEF7C8FDBF0610D512
:10510000238D0C4A934201D0013323858423E55833
:10511000002D06D00023002221002069A8470D3071
:1051200001D00020E3E70D204042E0E7102040429C
:10513000DDE7C046A02D0000F0B54F464646D646F6
:10514000C0B5204D204F2B7801332B701F4B994653
:10515000012398464B461C68002C1BD008262B7850
:10516000A27F9A421BD04246A377638B1A421ED17C
:105170001E4216D1E3689A46A36F002B07D0002386
:1051800020003B70FFF79CFF3B78002BE2D1544698
:10519000002CE4D1E0BCBA46B146A846F0BDE468B4
:1051A000F6E7B34320006383FFF72EF8E2E702221D
:1051B00013436383200002F0F5FB0322638B9343C8
:1051C0006383D5E767D8002065D80020F8D7002092
:1051D00010B5FFF7B1FF054A13780133DBB2137046
:1051E000DB0700D410BDFFF733F9FBE766D80020DA
:1051F00010B5002806D0054B054A186812688018BB
:10520000186010BD03480CF017F8C0463810002095
:1052100008D80020F462011010B5002A10D000292F
:105220000DD00A8E002A0AD0131C282A00D2282367
:10523000283B1A1C9BB2834200D9021C90B210BDBD
:1052400001480BF0F9FFC0461063011070B504006F
:105250000D00002802D00368002B00D170BD1F4A4A
:105260001068002805D00268934226D0C068002844
:10527000F9D11B4B1868002806D0236802689A42AF
:1052800024D0C0680028F9D1002DE7D02B68002B6E
:10529000E4D0144B1A68002AE0D0236811689942C0
:1052A00005D0D268002AD9D011689942F9D12B686B
:1052B0001360D268002AF0D1D0E7C6680121FFF759
:1052C00011FC002ED5D030002368CCE7C668012140
:1052D000FFF708FC002ED7D03000CEE7F8D700202B
:1052E000FCD7002004D8002070B5446F0600002CC5
:1052F00018D06068256800280CD0FEF7C7FC210094
:105300000420FEF7F5F8002D0AD02C00606825680F
:105310000028F2D121000420FEF7EAF8002DF4D194
:105320000023736770BDC046F0B5DE4657464E4653
:105330004546E0B583B0002800D1C3E0634B1D882B
:10534000002D30D0624B63499C4600236246138097
:10535000614B00221F68614B88461C880023002F88
:1053600028D01600954200D89FE0531CB1B29BB2E2
:105370008C423DD8191B0139C9B2795C01293DD055
:1053800002293FD000290CD09C4200D975E01B1B9C
:10539000DBB2FB5C012B00D890E09A1892B201239B
:1053A000DFE76246138003B0F0BCBB46B246A946B5
:1053B000A046F0BD4749019109688A4614218946F3
:1053C0009144954271D951464E46895D531C9BB21A
:1053D000012964D002295FD00029E2D0019909682F
:1053E000CB181B7D012B69D99A1892B20123B6E71D
:1053F000414609688919097D0129C1D11A00013680
:105400000123AFE7911C89B29C4221D81B1BDBB260
:10541000FB5C042B4FD14B1C9D424CDDD31C9BB23B
:105420008C4231D8091BC9B2795C0432090292B2AC
:105430009C4225D9274E3668F618337D0B43591EFA
:10544000274E89B2B14200D9264B4386012386E715
:10545000204E0196019E3668F3181B7D042B2AD13D
:105460004B1CAB4227DAD31C9BB2002FD8D171184A
:10547000097D0432090292B2DEE716490191ADE7D7
:105480001B1BDBB2FB5CD9E7124E0432366892B2CA
:105490007118097D0902CBE7911C89B2DAE7012274
:1054A00093461A00D94401238BE7002B00D17AE7F9
:1054B00063461A8077E76346198074E763460232D1
:1054C0001A8070E708480BF0B7FEC0464ED800209F
:1054D0004AD8002010D8002014D800204CD8002032
:1054E000B3050000B405000060630110F0B5D646B6
:1054F0004F46464605000C00C0B500285CD0C36886
:10550000587B1A7B00021043FDF792FAC0074FD474
:1055100001239A46FE339846294E3268E368944642
:105520005A79197912020A43997928890904114391
:10553000DA792789120660440A43811AC91B2DD4DF
:10554000587B1A7B00021043FDF772FA5346034260
:1055500007D127682000FFF731FA002F17D03C0051
:10556000DBE7EB68587B1F7B000207430120FDF758
:105570005FFA41463843EA6883B2276808401B0A4D
:10558000107353732000FFF719FA002FE7D100249E
:105590002C60E0BCBA46B146A846F0BD101AF7D55B
:1055A0006346D21A91B268682981FEF7B1FAEFE733
:1055B0002000FFF7E7F9EAE702480BF03DFEC0469E
:1055C000D4D600207C630110F0B55746DE464E4627
:1055D0004546E0B583B007000C1E019246D02D4B26
:1055E0009B46662398462C4B9A465B46E1681D68AD
:1055F0004A790B7912021A438B79C8791B04134339
:1056000000061843FDF718FA238906009946E36857
:10561000AD1B587B1A7B00021043FDF709FA4B467D
:10562000ED1A03231840431E98412D1A2AD46068AE
:105630002568FEF737FB4346FB5A984227D8424677
:105640001B1ABB5252462389128820009B185246CF
:105650001380FFF7B3F94346FB5A002B0ED0002D01
:1056600001D02C00C1E7019B002B0DD0002003B01E
:10567000F0BCBB46B246A946A046F0BD002DF5D011
:105680002C00B2E72000F2E704480BF0D5FD0448F7
:105690000BF0D2FDF417002048D80020CC63011095
:1056A000A4630110F0B5DE4657464E464546E0B5C8
:1056B000017D040083B0032901D800F0ABFCA64BA8
:1056C0001B78DB0653D4A54BA54F01933B889C4622
:1056D000002B00D19AE0019B217D1A68062900D990
:1056E00096E0636A991A481E00D549E165468146ED
:1056F000D01A461EEE4200D544E19A4D6868002853
:1057000001D100F0BDFC984B994201D900F0B5FCE5
:10571000028989B28A4201D200F0ACFC2B89521A6C
:105720005B1A2B81438992B299420AD90026B4466A
:10573000C91A634602814381006889B243898B425A
:10574000F6D3FEF74FFA636A019A190A1360EA6802
:10575000517119021371090E1B0E9171D371238DB2
:10576000002B00D063E2200002F0F6F858E060233E
:10577000C35A7A4A9946836D01929A461268436DDC
:105780007A4D981A00D5CAE02868934200D166E1A4
:105790004B46D346824500D166E1666CB046371A67
:1057A0004AD46F4F3E88B446002E00D1C9E0636BE7
:1057B000002B93D0A26B121A00D487E76C4A9DB2DB
:1057C00012883C23E15E94466346CA1092B29B1A4B
:1057D0005B1B9BB2591808B219B2A087002903DAE3
:1057E0006346D21AAB189BB23E22A15EC0108A104B
:1057F000891A40225B189BB2E3871B18A35200232F
:1058000063633B889C46002B00D064E7019B1A68C9
:10581000636AD11A0BD4218D013BCB189B1A06D495
:1058200003B0F0BCBB46B246A946A046F0BD02227A
:10583000638B13436383F3E7821B012A00D51EE1C8
:10584000236D1B1A00D51AE104210E00638B1E4044
:10585000B446194200D0A0E13C26A75F4631E68F4E
:10586000615AB146884640264821FF104F44615A8C
:10587000A7534227664692B2E6536064884500D833
:10588000A0E180200001034058424341608E013373
:105890005843031C80B2904200D9131CCB189BB212
:1058A0008B4200D298E14822A352E26E216F200081
:1058B000FFF78AFEE16E020020672000FFF784FEFA
:1058C000276FE0667B427B415B4223860023237780
:1058D000002800D185E16421264A635A12889B186A
:1058E0006352638B1A0500D4CCE0002F00D1D2E2C2
:1058F000F9684A790B7912021A438B79C8791B042B
:10590000134300061843FDF797F8E36CC01A00D55F
:10591000B8E0638B184A124F13406383B3E02868E2
:10592000164B1B689F7BDB7B1B023B436027E353CB
:105930000237E65B9E4200D2E35383466265A06570
:105940002BE749465B4451448B4200D10CE1636B29
:10595000002B00D02EE75BE75CD80020D4D60020D7
:1059600050D800200C2D0020FEFF0000F41700206E
:1059700008D8002048D80020FFF7FFFF10D80020EB
:105980008146D01A002800DAE9E04846218DC1425C
:1059900000D5E8E6934200D148E1656F002D00D1C3
:1059A0007EE2E868437901791B020B43817909049F
:1059B0001943C3791B060B43934200D114E1561ED1
:1059C000B446D11A00D5AEE2A8462D68002D60D0AD
:1059D000E868437901791B020B4381790904194373
:1059E000C3791B060B43934200D1FFE04146C968CF
:1059F0008A460979894651464E46497909020E433D
:105A00005146897909040E435146C9790906314343
:105A10006646711AD8D4991A0129D5D4C248FEF71E
:105A2000DBFF071E00D19EE6019B19684346D8683C
:105A3000437902791B021343827912041A43C37912
:105A40001B06134342461289D2188A1A00D5A1E2D6
:105A50004346290038001F60FFF748FD83E65346A0
:105A60001B1A00D494E65BE7B04B1B689F7BDB7B83
:105A70001B023B43994500D258E74B468DE6200078
:105A800001F06AFFAA4F636B002B00D11EE6286865
:105A900090E69B1A00D466E6037B407B0002184325
:105AA000FCF7C6FFC00700D55DE69F48FEF794FFF0
:105AB00043461860002800D155E6019B1A6843460A
:105AC000D868417903790902194383791B040B4390
:105AD000C1790906194343461B895B18D31A00D5BF
