:020000041000EA
:1000000000B5324B212058609868022188439860DF
:10001000D860186158612E4B002199600221596106
:100020000121F02299502B49196001219960352056
:1000300000F044F80222904214D00621196600F024
:1000400034F8196E01211966002018661A6600F04E
:100050002CF8196E196E196E052000F02FF8012189
:100060000842F9D1002199601B49196000215960AB
:100070001A491B48016001219960EB211966A021F2
:10008000196600F012F800219960164914480160C1
:100090000121996001BC002800D000471248134993
:1000A000086003C880F30888084703B5996A0420EC
:1000B0000142FBD001200142F8D103BD02B5186610
:1000C0001866FFF7F2FF186E186E02BD00000240BE
:1000D000000000180000070000035F00212200005C
:1000E000F4000018222000A00001001008ED00E03C
:1000F00000000000000000000000000074B24E7A12
:1001000000200420F7010010C3010010C5010010F9
:10011000C1010010C1010010C1010010C101001097
:10012000C1010010C1010010C1010010C701001081
:10013000C1010010C1010010C9010010CB01001065
:10014000CD010010CD010010CD010010CD01001037
:10015000CD010010CD010010CD010010CD01001027
:10016000CD010010CD010010CD010010CD01001017
:10017000CD010010CD010010CD010010CD01001007
:10018000CD010010CD010010CD010010CD010010F7
:10019000CD010010CD010010CD010010CD010010E7
:1001A000CD010010CD010010CD010010CD010010D7
:1001B000CD010010CD010010CD010010CD010010C7
:1001C00000BE00BE00BE00BE00BE00BEEFF3058054
:1001D000103800BEF2EB887194930410BC930410A5
:1001E0003402001090A31AE700201F49086006C8D7
:1001F00081F3088810471D48006800282FD10DA4FE
:100200000ECC002902D000F012F8F9E71849194A7B
:10021000002000E001C19142FCD1174988471749ED
:1002200088471749884700BEFDE701C901C29A42C5
:10023000FBD37047BC930410C0000020E8100020DE
:1002400004A40410000004200000042004A40410EE
:10025000001004200010042000000000704709482E
:1002600000F0C6FF0047000008ED00E0000000D0ED
:100270000811002020D8002035BC00101503001004
:1002800029BD00105756000006005250ABB3605312
:100290002091041006005250861C03023091041075
:1002A000060052505422A29D38910410050052506D
:1002B000DE65F46804A40410F8B5C0460648074992
:1002C000091A8B10C90FC91810B5491003D0044B77
:1002D000002B00D0984710BDE8100020E810002047
:1002E00000000000054B10B5002B03D00449054861
:1002F00000E000BFFFF7E2FF10BDC04600000000B5
:10030000A4C60020B80401100122014B1A607047F6
:10031000F0280020F0B5DE4657464E464546E0B58B
:10032000F1B00DF01DFE07F0C5FE10AC0600270071
:10033000002800D05AE101239846B24B8025994607
:100340006D01B31C9A460421180001F0E5F95346EB
:100350005A083B604346AC4933408C464946BB6033
:1003600093007A609B18A94A9B009A18634419600D
:1003700041461368013699432A4311600C37062E13
:10038000DFD123AB16AA43CA43C31FAA43CA43C340
:1003900030AB13AA43CA43C343CA43C33DAB13AAFA
:1003A00043CA43C31CAE31000C2218000DF0F8FB09
:1003B0004AAB19AA83CA83C307CE07C3220057AB2F
:1003C00043CA43C319AA43CA43C321000C2264A8E9
:1003D0000DF0E6FB67AB1FAA43CA43C38C4E012254
:1003E00033000C21102001F0FFF9330001220C2111
:1003F000112001F0F9F9330001220C21122001F043
:10040000F3F96268D02693009B18824A9B009246BB
:100410009A44534622692B43029393009B187D4ACA
:100420009B00914699444B46E2692B43039393000A
:100430009B18784A9B00904698444346A26A2B43F7
:10044000049393009B18734A9B009446E346626BA7
:10045000634405932B43069393009B189B00226CE7
:10046000634407932B43089393009B189B009B4482
:100470005B462B430993A36807255A425341664ABA
:100480005B429446DB03DB0B63440A936369634F6F
:100490005A4253415B42DB03DB0B63440B93236AF9
:1004A00036065A4253415B42DB03DB0B63440C9339
:1004B000E36A5A4253415B42DB03DB0B63440D9317
:1004C000A36B5A4253415B42DB03DB0B63440E9345
:1004D000636C534C5A4253415B42DB03DB0B634476
:1004E0000F930121002007F0D5FDFA20400002F013
:1004F0007FF80021002007F0CDFDFA20400002F037
:1005000077F82368012BECD10121002007F0C2FD10
:10051000642002F06DF80021002007F0BBFD64208C
:1005200002F066F80023236073681B0C2B409B00CD
:10053000FB58062BD5D03422534322AA9446634459
:1005400098685969DA685B6A0091019353460A9981
:100550001B680B4002990B604B460B991B680B40C4
:1005600003990B6043460C991B680B4004990B6080
:10057000059B0D991B680B4006990B60079B0E9914
:100580001B680B4008990B605B460F991B680B407A
:1005900009990B601F4983008C461B189B0063441C
:1005A000002A1DD01F4A1C4819684A40024080207A
:1005B000400103431A60009A94469300154A63442D
:1005C0009446019A9B006344002A0CD116481749AF
:1005D0001A6842401140802252011343196080E79B
:1005E000114A1248E0E70F480B49F1E710480DF0B7
:1005F000ABFC0120404271B0F0BCBB46B246A946FC
:10060000A046F0BD831E000010000540000005401C
:10061000090300100C0005400000FFFFCC0401108E
:10062000F028002000005B155B150000FFFF0000B4
:10063000B804011010B505F013FB10BDF8B5012387
:100640000B72040005F040FB0500431C0BD1104B5E
:10065000186859680F4B22689860D960190020000B
:1006600052699047F8BD02F085F8FA2206000F00A3
:1006700000232800002192000DF036FA8023801913
:1006800079411B069942E5D3012003494042E1E745
:1006900028050110880F0020FFFFFF7F70B5094D6E
:1006A00004002B78002B08D00123074920000B728F
:1006B0002368DB699847012070BD02F0DFFB01234E
:1006C0002B70F1E714D80020A00F002010B5040013
:1006D000036804499B6998472368200002491B6A04
:1006E000984710BD880F0020A00F00200020704701
:1006F0007047C04610B502F03DF8002905D0FA2237
:10070000002392000CF0C0FE10BDFA2189000CF00D
:100710007DFEF9E783680830002B04D107E018005C
:100720001B68002B03D09942F9D1002003E000237D
:10073000016001200B6070478368002B08D099424C
:1007400002D107E0994206D018001B68002BF9D1AE
:100750000020704708300B6803600120F9E7C046AD
:1007600043680430002B04D107E018001B68002BFD
:1007700003D09942F9D1002003E000230160012059
:100780000B6070474368002B08D0994202D107E004
:10079000994206D018001B68002BF9D10020704741
:1007A00004300B6803600120F9E7C046F0B5464607
:1007B000D6464F4683688046C0B5002B2CD0082310
:1007C0004344994601F0D6FF43469B6804000D0060
:1007D0009C46002B20D01E0000234F469A46B2684C
:1007E000F36820002900801A9941002902DB1400D7
:1007F0001D00BA4637003668002EF0D15346002B54
:1008000048D05246196840460B6813604B689847B9
:1008100043469B68002BD5D143465C68002C35D0FD
:100820000025237A002B28D02100636825724046DA
:1008300098472468002CF4D143469B689C46194B8A
:10084000186859686346002B0FD063461A689C6885
:10085000DD6894460B000200121BAB41002B10DD3B
:10086000634620002900002BEFD1434618615961EF
:10087000E0BCBA46B146A846F0BD2468002CD0D1F1
:10088000DAE7002BDED1002AEAD1DBE7054B186856
:100890005968EAE743465C68002CC1D1014B1868EF
:1008A0005968D2E728050110024B18688007C00F6D
:1008B0007047C04600C0064070B50F4C0F4D104A3F
:1008C00024184D41A900A00F0843A90F69400D4B02
:1008D00060400DF009F94A01C30E1343CA0E584097
:1008E0005140094B094A0DF0FFF84A00C30F13436A
:1008F000CA0F5840514070BD157C4A7FB979379E68
:10090000B9E5E41C6D4758BFBB49D094EB113113D6
:10091000F0B504684568060023002A00C6468068D2
:10092000F16803430A4300B5134304D101F022FFE9
:1009300003000B43FAD02A06230A6040270613431C
:100940002A0A3A43070CBC4669404B409846634626
:100950000F041F43424003045A4043467B40326029
:100960007360C20E4B011343C90E40010843B360CC
:10097000A10FAB000B43A20012196B41F060D9012B
:10098000500E0843D201590E11430C0005004B0FC5
:10099000C1001943E0000019694180BCB846F0BDB0
:1009A000F0B5DE4657464E464546E0B5BC4991B0E7
:1009B00008910978002900D1E4E00CAB9846B94BC6
:1009C000B94C0293B94BBA4E059310220599404693
:1009D0000DF0E6F8B74B06931B78DBB2079301F0F6
:1009E000C9FEFFF769FF0C9B4340089343465B68D1
:1009F0004B400993B04B9B69DB0433D5AF4BDA6BAB
:100A0000E0231340402B2DD0EFF305839A46AC4BE7
:100A10002768994600239B463300564665689A46E8
:100A200038002900002E1AD001F0AEFEEFF310823C
:100A300072B64B461B68002BFBD0BFF35F8F236859
:100A4000BB4212D0BFF35F8F4B465946196082F309
:100A500010882768656838002900002EE4D101F06D
:100A600065FDE3E70BF07CF9CEE76368AB42E9D1C3
:100A7000914B1500DF6901F07DFE0A2200238018EA
:100A800059410B0080215646020009068B4202D3D1
:100A900001228C4B524201200CC4326873689218B8
:100AA0005B41384010430024009201933060736032
:100AB000BFF35F8F824A146085F310880199FFF7B6
:100AC000FBFE43469B68424658404346DB689060C5
:100AD0004B40D3607C4A029B94461B787B4ADB00E8
:100AE0006344986890424BD00021FFF7E5FE089BD5
:100AF0001840099B0C90194043465960EFF310854C
:100B000072B66F4A1368002BFCD0BFF35F8F069B51
:100B1000079A1B78934214D005980C9A0368416891
:100B20005A4043465B680C9242464B405360926881
:100B30008368C1685A404346DB684B4041468A603F
:100B4000CB604046FFF7E4FE102206000C0005983B
:100B500041460DF025F8069A13780133DBB2137085
:100B6000BFF35F8F0022564B1A6085F31088300068
:100B7000210011B0F0BCBB46B246A946A046F0BD6C
:100B80009C60B1E7524D534CAC4620686168524DB1
:100B9000A246A84600920193850D8F0286022F433C
:100BA00034003D0024184D41A30E9946AB0101933A
:100BB0004B46019A1A43A30100930192009C019DA8
:100BC000241A8D412000644608CC2900029300239A
:100BD000A4460393029C039D00196941C445DBD1DF
:100BE000544620606160FFF767FE0CAB98460C9B93
:100BF0004340029343465B680AA84B40059300F0CC
:100C00002DF90A980B99FFF757FE43469B6843401E
:100C100006934346DB684B400793274B9B69DB04F5
:100C200000D4F5E0254BDA6BE0231340402B00D1D4
:100C3000EEE0EFF3058300249A460023402500935D
:100C400001941F4B2E0099465546C346164C00236F
:100C5000B04627682E0065689A4638002900002EA5
:100C60001AD001F091FDEFF3108272B64B461B686B
:100C7000002BFBD0BFF35F8F2368BB422ED0BFF3A6
:100C80005F8F4B465146196082F31088276865686C
:100C900038002900002EE4D101F048FCE3E7C0460B
:100CA0001AD800200FD8002080120020F810002051
:100CB000E810002010D8002000000640008000400E
:100CC000300100D0FFFFFF7F00000340FFFFFF0067
:100CD000001C0420F0100020002004206368AB42B8
:100CE000CDD1350046469046009A019B1000190070
:100CF000801859414B4BDA69012313400343009399
:100D0000019101F037FD0A220023801859410B00A0
:100D10008021020009068B4202D30122424B52423B
:100D200022606360012E5ED10098019935003F4E2C
:100D3000474630607160D846BFF35F8F3C4B9946A1
:100D400000234A46136087F31088FFF7B5FD029B26
:100D500043400C93059B4B4019005B46596001F0E2
:100D600009FDFFF7A9FD069B434018005B4698600C
:100D7000079B4B4019005B46D960EFF3108772B6B2
:100D80004B461B68002BFBD0BFF35F8F089B1B7883
:100D9000002B31D1274BDA681F2A3CD05A691F2A11
:100DA0003AD0DA691F2A39D05B6A03251F2B33D06A
:100DB0000AF0D6FFFF25FF231F4AED0013701F4BDB
:100DC00002929C46052365446B604046FFF7A0FDF8
:100DD0001B4B10221800414605930CF0E1FE012345
:100DE000089A13700CE0BFF35F8F00234A4613602C
:100DF00088F31088013E2AE70F4B0293104B0593AE
:100E0000BFF35F8F00220A4B1A6087F31088DCE57E
:100E10000AF0A6FF0DE70025EBB2CDE70225EBB205
:100E2000CAE7C04600000640FFFFFF7FE810002031
:100E3000300100D0000003400FD80020080003401C
:100E4000F810002010B5FFF7ABFD10BD10B502483B
:100E500000F0E0F810BDC046A0D6002010B5082272
:100E600001490CF09DFE10BDA0D6002030B54B1EF0
:100E7000012900D1A7E0664A11780D112C00303409
:100E80009F2900D9A2E00470012B00D1BEE00F2100
:100E9000147821400C003034092900D998E04470BE
:100EA000022B00D1B2E054782511290030319F2C5B
:100EB00000D990E08170032B00D1A7E00F212140E1
:100EC0000C003034092900D987E0C470042B00D10C
:100ED0009CE094782511290030319F2C00D97FE0C7
:100EE0000171052B00D191E00F2121400C0030341D
:100EF000092900D976E04471062B00D186E0D47828
:100F00002511290030319F2C00D96EE08171072B0B
:100F100000D17BE00F2121400C003034092966D834
:100F2000C471082B00D171E01479251129003031EA
:100F30009F2C5FD80172092B68D00F2121400C0033
:100F40003034092958D844720A2B5FD054792511BE
:100F5000290030319F2C52D881720B2B56D00F2193
:100F600021400C00303409294BD8C4720C2B4DD0D1
:100F700094792511290030319F2C00D90731017354
:100F80000D2B43D00F2121400C003034092901D909
:100F900037310C0044730E2B38D0D1790C1122005C
:100FA00030329F2900D9073282730F2B2ED00F22A7
:100FB0000A4011003731092A01D830321100C173BB
:100FC000102B23D010300023037030BD07345AE7B4
:100FD00037310C0063E707316CE737310C0074E7F9
:100FE00007317DE737310C0085E707318EE7373170
:100FF0000C0095E707319DE737310C00A3E7073177
:10100000AAE737310C00C4720C2BB1D1C018DAE753
:10101000A0D6002030B5002589B0040009220021A7
:1010200001A800950CF0B6FD0922002105A8049541
:101030000CF0B0FD4B236A466846137004A90D22DC
:101040000FF0CAF915210822200069440CF0A8FD10
:1010500009B030BDEFF3108072B6034A1368002B5D
:10106000FCD0BFF35F8F70472C0100D0BFF35F8FC0
:101070000022024B1A6080F3108870472C0100D0C8
:1010800070B5EFF3108C72B60D4D2B68002BFCD0B1
:10109000BFF35F8F0724CB08C618C05C01230C4048
:1010A000A3401C000440034207D118433070BFF333
:1010B0005F8F2C608CF3108870BD10000AF038FE32
:1010C0002C0100D0F8B54746CE46884680B5EFF3F0
:1010D000108C72B6214D2C68002CFCD0BFF35F8FB2
:1010E0009A422CD8D4080727055D06190124174019
:1010F000BC402C421FD007210127894609E0D408B3
:10110000055D06194C4639001440A1400C002942E7
:1011100011D001329342F2D201204042BFF35F8FDF
:1011200000220E4B1A608CF3108800280FDBC0BC25
:10113000B946B046F8BD254310003570EEE7BFF361
:101140005F8F00232B608CF31088012040424346C0
:10115000002BECD008980AF0EBFDC0462C0100D023
:1011600030B5EFF3108C72B60A4C2368002BFCD01C
:10117000BFF35F8F072301220B409A40CD08435DE8
:1011800093434355BFF35F8F002323608CF3108894
:1011900030BDC0462C0100D00021044B044ABFF3EF
:1011A0005F8F02C39342FAD17047C046000100D05E
:1011B000800100D0044A1078431CDBB2172B00D901
:1011C000102313707047C046AC0F002010B5064BBB
:1011D000064C82B00100009318221F232000FFF765
:1011E00071FF02B010BDC046EC040110141A0020BB
:1011F000142310B50100188804331B88984710BDCC
:10120000162310B50100188802331B88984710BDBB
:10121000F8B54746CE4680B50F1E19D0142399461F
:10122000043304000025012698464B46188843469F
:1012300021681B88984701C4431E984101354042EC
:101240000640AF42F1D13000C0BCB946B046F8BD4F
:101250000126F8E710B50C2082B001F0A5FDFFF7DC
:1012600023FB002810D0864B86488649864A1860A2
:1012700059609860D960186159619861D9611862A4
:1012800059625A6202B010BD804CA06701F0E2FDC5
:1012900001227F4B1A60636C012BFCD103227D4B32
:1012A0001A607A4A936B012BFCD1013301217A4AEF
:1012B0007A480093043301F023FD0523784A009314
:1012C0000121784801F01CFD774B5A68FF2A02D8AB
:1012D000802252005A6080226E4B694C12011A60C3
:1012E0002169002905D060690CF090F801300138BF
:1012F000FDD1E0226C4B6D4819680A400260022261
:101300001968514001320A40042102609A68114272
:10131000FCD08021664A09011160802252005A6087
:10132000644B2361644B5968FF2900D85A6003223B
:101330000121574B1A60604A93681942FCD0E023A0
:10134000106803405D480360126803234A4002218D
:101350001340594A036093681942FCD08021584BCE
:10136000090119608021574B490051606361564B58
:101370005A68FF2A00D859608022544B12011A6023
:10138000E169002905D060690CF040F801300138AE
:10139000FDD1E0234C4A11680B404D490B60802180
:1013A0004C4B090119608021364B49005160E361C3
:1013B000494B5A68FF2A00D859608022474B1201D6
:1013C0001A60216A002905D060690CF01FF801300D
:1013D0000138FDD1E023404A11680B4040490B60C1
:1013E0008021404B0901196080235B0053608022FB
:1013F000244BD20223623C4B5968914200D25A607E
:1014000080223A4B12011A60616A002905D0606996
:101410000BF0FCFF01300138FDD1E023324A1168A6
:101420000B4033490B608021324B09011960802346
:10143000DB025360144B63622F4B5A68FF2A02D8B9
:10144000802252005A6080222C4B12011A60A1693E
:10145000002905D060690BF0D9FF01300138FDD1BA
:10146000E023254A11680B4025490B608021254B5C
:101470000901196080235B005360124BA36101E7EF
:1014800008110020006CDC021BB700000080004047
:101490003CB0004030B00040002F6859008002404E
:1014A000008C864700C002403080004030900040F1
:1014B00030A00040001BB7003C8000403C90004042
:1014C0003CA00040405973075480004054B0004095
:1014D0005490004054A000406080004060B0004044
:1014E0006090004060A000406C8000406CB0004004
:1014F0006C9000406CA000404880004048B0004024
:101500004890004048A00040014B8000C058704700
:1015100008110020D0231B061B687B4A99005258F3
:10152000F0B5574692465A1E93413022DE464E464B
:1015300045465B421A401300744AE0B5944683B0B6
:1015400063440193724B884608260F279B4635005B
:10155000083DEA081300019908339B005C58002CF1
:1015600022D0012399465346002B27D03900214031
:10157000274213D05B4642469A584B46AB401A422C
:101580000CD1072208002A40920090400200EB088C
:1015900060483C339B001A502800D047240901358D
:1015A000002C01D0AE42E1D80836282ECFD103B0AE
:1015B000F0BCBB46B246A946A046F0BD390021406A
:1015C000274206D00133AB404546514840591842A6
:1015D00076D02309E8D00F22110019401A420DD00D
:1015E0004546F31F0E3A9A4049484059104205D1EA
:1015F000DB08484A3C3309019B009950230AD3D0A9
:101600000F22110019401A420DD04546B31F0E3A61
:101610009A403F484059104205D1DB083D4A3C33CF
:1016200009029B009950230BBED00F2211001940D4
:101630001A4236D1230CB7D00F22110019401A429A
:1016400043D1230DB0D00F22110019401A424BD1C3
:10165000230EA9D00F22110019401A420DD0454681
:10166000B31E0E3A9A402A484059104205D1DB0871
:10167000284A3C3309069B009950240F721E002C07
:1016800000D191E70123404693402149095819426E
:1016900000D089E7D3083C331E4A24079B009C50A6
:1016A00082E74546731F0E3A9A4019484059104246
:1016B000C0D1DB08174A3C3309039B009950B9E7B6
:1016C000144B3C329200D15083E74546331F0E3A0B
:1016D0009A400F4840591042B3D1DB080D4A3C33C1
:1016E00009049B009950ACE74546F31E0E3A9A4018
:1016F000074840591042ABD1DB08064A3C33090584
:101700009B009950A4E7C046FC190020004101400D
:1017100090D6002000400140094A10B5944640246C
:10172000830063441A68C000624080341440802201
:10173000520113431C60034B9C466044416010BD42
:1017400004C0014000400140074B80009C466044BB
:101750000368C90092000A435A400C231A408023B0
:101760005B0103431A60704704C00140084B8000CE
:101770009C466044002905D0802302229B0103433C
:101780001A607047C02302229B0103431A60F8E7E6
:1017900004C00140D0231B061B6830B50500584229
:1017A00043412F205B4283430D48EC0884460720C9
:1017B00028408000814020000A4D3C306344800076
:1017C000A40041511B19002A04D080229201134326
:1017D000196030BDC022920113431960F9E7C04679
:1017E0003041014000400140F8B51D00D0231B06E8
:1017F0001C680600604244412F206442844327480D
:10180000F708844607203040800081403800244E8D
:101810003C3064448000BF008151E419002A11D09B
:1018200080229201224311601C681E4EA400A3591D
:10183000002B15D0002D25D0A55101210D2000F041
:1018400085F8F8BDC0229201224311601C68154E34
:10185000A400A359002B0CD0002D18D0A551F0E7FF
:10186000002DEAD000220D200F49A55100F0D0F83C
:10187000E3E7002DE5D000220D200B49A55100F033
:10188000C7F8DEE70D20084900F0BCF9D4E70D20C9
:10189000054900F0B7F9A551D3E7C04630410140F2
:1018A00000400140FC19002015150010D023F0B5B0
:1018B000C6461B0698461B680C4F9B001600FA583C
:1018C00004000D0000B5104209D1290014430D2079
:1018D0003200FC5000F09CF880BCB846F0BD0AF025
:1018E0003FFA43461B689B00FA58EEE790D600206B
:1018F00010B504000D2000F085F9D0231B061B68ED
:1019000002499B005A58A2435A5010BD90D600205D
:101910000123D0228340120693629361094A402139
:101920009446830063441A68C0004A4080311140E5
:101930008022520113431960034B9C4605236044E7
:101940004360704704C001400040014001238340D0
:10195000002904D0034A1360034A13607047034A06
:101960001360FBE780E200E000E100E080E100E0DE
:1019700001238340014A13607047C04600E200E043
:10198000084B10309B688000C358002B07D0064AD4
:1019900000209B1A2F229A424041C0B2704700207B
:1019A000FCE7C04600ED00E0B00F0020024B103015
:1019B0009B688000C058704700ED00E070B50D00D6
:1019C000EFF3108672B60F4A1368002BFCD0BFF3FA
:1019D0005F8F0D4B10309B6884001B590B4A93425C
:1019E00003D09D4201D00AF0BBF9074B9B681D5103
:1019F000BFF35F8FBFF35F8F0022024B1A6086F345
:101A0000108870BD240100D000ED00E0CD01001071
:101A1000F0B557464E46DE464546E0B585B0060071
:101A200000911700EFF3108B72B66A4A1368002B0F
:101A3000FCD0BFF35F8F0025674B5D579A46002DA2
:101A400000DA8BE06B00654C01935B199B009846B4
:101A5000A146C1444B4652469B7910361370604BE9
:101A6000B6009B6899590B1B2F2B33D95D4B9942BC
:101A700000D0ACE0019B42469C465B4B6544AD0008
:101A800063535A4B0232A218043B9B1A1B05584A57
:101A90005B0D651913436B80564B0121AB80FF230F
:101AA000AB71009BEF71AB604B460B4319004C4B85
:101AB0009B689951BFF35F8FBFF35F8F0022454B47
:101AC0001A608BF3108805B0F0BCBB46B246A9463D
:101AD000A046F0BD01200A008243D3798C46BB4268
:101AE00031D84546130044491B1B5B415943090D3E
:101AF0003D4B63533D4B02356519043B5B1B1B0596
:101B00003B4D5B0D2B43AA464D466B800425AC46EE
:101B10005546E044131F44441B1B1B055B0D1D432E
:101B20004B46997100999D8099604946DF71334B0E
:101B300001431360BBE75800C01880002018C1792A
:101B4000B94211D902000623D356002BF3DA0293CF
:101B5000131D9A462A4B6146039319E00AF000F9D7
:101B6000002553465D576DE7908802934005131D8D
:101B70009A46031561469C464046D4446346043069
:101B80002018181AE0230005400D1B02184303908B
:101B900004235B429C46E14450464B461B1A1B05FE
:101BA0005B0D9C46124B9571984663464046034335
:101BB0009380019B5A199200039BA418A380029B57
:101BC0000E4AA371009B2260E771A3606FE70AF0E1
:101BD000C7F84FE7240100D015D80020B00F00202F
:101BE00000ED00E0CD01001000A1FFFFE00F00209C
:101BF00000E0FFFF01BDFFFFAAAA000001488047E7
:101C000001BD0000F0B5DE4657464E464546E0B5FC
:101C10000C0083B0EFF3108872B65D4A1368002B96
:101C2000FCD0BFF35F8F5B4B5B499A6803001033B6
:101C30009F00D5598D4239D0A5424AD0574EAA1B94
:101C40002F2A33D801229246824091464846544A70
:101C50001268104001904846524A1060BFF35F8FEF
:101C6000EFF305829346002A35D0934201D00AF063
:101C700077F82A0053469A439068844208D175E069
:101C80004B005B189B00F3189868A04234D01A00F0
:101C9000062151560029F3DA844253D0019B002BD0
:101CA00026D04A46404B1A603D4B1A60394B9B6820
:101CB000DD51BFF35F8FBFF35F8F0022344B1A609B
:101CC00088F3108803B0F0BCBB46B246A946A046D4
:101CD000F0BD0D00EAE72A0053469A43906884421B
:101CE000D6D1062010561300002809DA0D0031E085
:101CF0004A462C4B1A60D9E706201856002822DBEA
:101D000042001118890074188A46A1689960E17927
:101D1000D971062161569971002925DBA488F11A31
:101D20006405241554440919E0240905490D2402C9
:101D30002143998013181D4A9B001178F31899715B
:101D40001070ABE713005946002914D1FF3191718F
:101D50001749918015490A789A71164A9B1B5B4175
:101D60005A43120D0A7099E71349E2E7062010560C
:101D700013000028C4DA114A1149D21A083A500255
:101D8000400D014399800F4952080A43DA8085E7E4
:101D9000240100D000ED00E0CD010010B00F0020C4
:101DA00000E100E080E100E080E200E015D80020E2
:101DB00001BDFFFFAAAA000001BD0000EA0F00203C
:101DC00000F0FFFF00F8FFFF032310B50400074AEF
:101DD00018409446C0009C43FC338340644422680E
:101DE00081409A4313000B43236010BD00E400E0E0
:101DF00070B5EFF3058101240443EFF3108C72B644
:101E0000214A1368002BFCD0BFF35F8F1F4B0500E6
:101E10001F4AED1A6D416A43120D1E4D8900AE68CE
:101E200052B27658A6421CD00621595691421CD077
:101E300012215956914222D01E215956914220D04A
:101E40002A2159560324914210D0134B19781A7045
:101E50008171BFF35F8F00220B4B1A608CF31088E7
:101E600070BDAB680D4C5C50EFE7002461000919B0
:101E700089005B18FF21997109499980E5E70124E0
:101E8000F4E70224F2E7C046240100D0B00F00209E
:101E9000AAAA000000ED00E015D80020CD01001036
:101EA00001BDFFFF054B064A1360064A13605360ED
:101EB0009360D36013615361936170478080808029
:101EC00000E400E004E400E01F2110B5091A024814
:101ED000FFF746F910BDC0461FD8002010B5084BCB
:101EE000084C82B001000093002205232000FFF778
:101EF000E9F8002801DB1F23181A02B010BDC04604
:101F0000080501101FD8002070B504000E00150050
:101F1000FFF750F90100200000F006F8A680E580E8
:101F2000BFF35F8F70BDC046024B9C466144890081
:101F3000016070474000003410B50400FFF73AF923
:101F400001002000FFF7F0FFFF232371BFF35F8F35
:101F500010BDC04610B50400FFF72CF901002000A9
:101F6000FFF7E2FFFF23A380BFF35F8F10BDC046E2
:101F700010B504000120FFF729F9034BC3189B009B
:101F80002360BFF35F8F10BD40000034034B9C46BD
:101F9000614489000160BFF35F8F704740000034E7
:101FA00083680B4810B584466144624412010901FC
:101FB00059189B185C684A680120944201D802D0E5
:101FC0000020C0B210BD1A680B689A42F9D8F7E732
:101FD000FFFFFF0F0A4B1968EFF3108072B60A6813
:101FE000002AFCD0BFF35F8F1B68BFF35F8F002216
:101FF0001A6080F3108840BF002000217047C0465F
:10200000ACD70020F8B5574645464E46DE46E0B50B
:1020100098460CAB1C780DAB1B78070091469A468E
:102020000568002C5ED1AC7B002C3BD06600296893
:102030003619033E89194B78AB73002B00D1EB7333
:1020400000238B704B700B702D4BE218BB68120194
:102050009B184A461A6042465A600A9A9A600B9A3E
:10206000DA6000238B704B700B706B7B9B46002BF0
:102070002BD022005946A8686B6898472A68002828
:1020800016D05B4658465B005B449619033BB07024
:10209000D118D35C002B00D073705B460C706B734F
:1020A0005C4513D0F0BCBB46B246A946A046F8BD7D
:1020B0005B465B005B44033BD3189C709119925DB7
:1020C000002A00D05A705B460B706C734A46434638
:1020D000387D00F0AFFB051E0AD10E9B002BE1D02E
:1020E0001D70DFE7660029683619033E8919ABE7E2
:1020F0005346002BF1D12100386800F0C5FDECE714
:10210000FFFFFF0FF0B5DE4657464E46454600231B
:10211000E0B58BB00893674B8200D45800239B46F0
:10212000099000F027FB02000B006068EFF3108AB3
:1021300072B6564601680029FCD0B246BFF35F8FE5
:1021400021684F7B8C46002F2ED0A5685A49A9469E
:1021500079180901894449460868496805000E0054
:10216000AD1A9E41002E5FDD02000B00099800F0C1
:1021700061FB002300229946002306920793002367
:1021800098466368BFF35F8F5A461A608AF31088D7
:102190004346002B12D10028C3D10BB0F0BCBB4684
:1021A000B246A946A046F0BD00230022994600236E
:1021B00006920793002300209846E2E7089B4946D1
:1021C00018023843C047626805000E00EFF3108A1A
:1021D00072B61368002BFCD0BFF35F8F002E40DB7C
:1021E0002B00334302D02369002B55D12368D97BC0
:1021F000002905D01A68480041185218033A577050
:102200009A7B002A00D19F73DF73E268013FD35DA0
:102210000133D3555B4623616368BFF35F8F5A4632
:102220001A608AF310887CE7002E01D1002D9BD123
:102230000021604600F0A6FC4B461A685B680692D7
:1022400007934B469B6898464B46DB689946E36884
:10225000DB19013B1B7808931B0203432361002019
:102260008FE72369002BC1D0069A079B8021521B60
:10227000B34109068B4202D30122104B5242002186
:102280000491013103914946019141462000029792
:102290000091FFF7B7FEBDE700F06CFA2A003300AB
:1022A00012184B41802109068B42E8D30122034BCF
:1022B0005242E4E7C4C60020FFFFFF0FFFFFFF7F8D
:1022C00010B5144C6368002B04D00A211248FFF7A4
:1022D0002BFE10BD2300114A1021206800F068FB7E
:1022E000032000F03BFA032000F012FB03200C490E
:1022F00000F05AFAFEF75EFF0A4B9C460323237553
:10230000D0231B061B6860446375074B8000606028
:10231000DC60DAE7F80F0020ACD70020A11F001026
:102320000521001040000034C4C60020004870475A
:10233000F80F0020F0B557464E464546DE46E0B55C
:1023400085B0019310AB1B780600039300239A46D7
:10235000984600927268EFF3108B72B61368002BE8
:10236000FCD0BFF35F8F3568AC7B002C00D16FE0F1
:1023700067002B683F19033FDB195A78AA73002ABC
:1023800000D1EA734B4AA118B268090152180098AB
:102390000199106051600E9991600F99D160424689
:1023A0009A705A701A706B7B9946002B00D170E0BE
:1023B00022004946A8686B6898472A6800285BD0C5
:1023C0004B4648465B004B44D719033BB870D118C5
:1023D000D35C002B00D07B704B460C706B734C456C
:1023E00058D0F3681B19013B18787368BFF35F8FEF
:1023F00042461A608BF310885346002B08D1000226
:10240000204305B0F0BCBB46B246A946A046F0BD8D
:10241000039B002B4BD00E9B00200F999847030085
:1024200004000D000B4342D000291ADA009A019BE8
:10243000121BAB410092019380221206934204D3F7
:1024400001231D4C5B4200930194039B9A4681E754
:102450007368BFF35F8F1C608BF3108801204042CC
:10246000CFE700F087F9802224184D41120600942E
:1024700001959542E9D3E3E74B465B004B44033BB0
:10248000D3189C70D119D25D002A00D05A704B46E7
:102490000B706C73307D009A019B00F0CBF9824683
:1024A00000289ED02100306800F0EEFB99E7002064
:1024B000A7E7C046FFFFFF0FFFFFFF7FF8B50B0048
:1024C00004004168EFF3108572B60A68002AFCD058
:1024D000BFF35F8F2068D9B2427B8A4209D0FF26C2
:1024E0001E4002687700BE199219033A9278002ABA
:1024F00012D0FF26E2681E409219013A1B0A127898
:10250000DBB29A420DD000206368BFF35F8F0022D8
:102510001A6085F31088F8BD21699942F3D12261D0
:10252000F1E700F0B1FBEFE7407D7047F0B5040044
:102530000D0006267642F717C64636196F4100B5DC
:1025400084B08F4214D811D000F014F932003B004F
:10255000121A8B41002B15DC002B3ED020002900E5
:1025600000F012F904B080BCB846F0BD8642EBD949
:102570000026002700F0FEF832003B00121A8B41C3
:10258000002BE9DD002302930193154B32000093E9
:1025900014483B00FFF7CEFE0028DFDB00239846FF
:1025A000BC46114A114F7B6A9C4504D8B96AB142B6
:1025B000D4D29C45D2D11168EFF3108072B60B686B
:1025C000002BFCD0BFF35F8F1368BFF35F8F4146D2
:1025D000196080F3108820BFE5E7002ABED0D1E75C
:1025E000D51F0010F80F0020ACD700200040054098
:1025F00070B5060000F0BEF8FA2204000D000023BA
:102600003000002192000BF06FFA8023001969411D
:102610001B06994202D3012002494042FFF786FF80
:1026200070BDC046FFFFFF7F70B5EFF30583050067
:102630000C0084B0002B0AD0164A0020536A9C423A
:1026400003D8926A0130AA421FD304B070BD124E63
:1026500002930193114B0200009330000B00FFF72F
:1026600069FE011EE8DD20BF3000FFF727FF094BA0
:1026700000205A6A9442E8D89B6A0130AB42E4D207
:10268000A41A631E9C41E0B2DFE7E31A5A1E93418D
:10269000D8B2DAE700400540F80F0020D51F00103F
:1026A000F0B5EFF30582D6464F4646461000C0B55A
:1026B0001038EFF3108872B6214C2368002BFCD041
:1026C000BFF35F8F0123190081401E4D1F00696316
:1026D000AA461D4D29601D4D2E78AC463500C540DB
:1026E0002F402B4215D053465F6A194B8500EB589B
:1026F0009F4218D36246174B8E43EB581670BFF3B8
:102700005F8F0022226088F31088002B06D0984744
:1027100004E0BFF35F8F276088F31088E0BCBA46FF
:10272000B146A846F0BD0C4B92009C46624413682B
:102730001360BFF35F8F0023236088F31088EDE7F9
:10274000280100D0004005403C7005401ED8002004
:10275000B8D70020D4170020D03F054010B5034B58
:1027600001001800024AFEF78BFC10BD11D80020B2
:1027700030050110034B596A0A00986A596A8A4267
:10278000FAD1704700400540064A536A9942FCD886
:1027900007D1044B02E05A6A914202D19A6A8242FE
:1027A000F9D370470040054070B504000D00EFF309
:1027B000108672B61A4A1368002BFCD0BFF35F8FE5
:1027C000002D1BD02000FFF7F1F8164981420AD0F6
:1027D0002000FFF7F3F801212000FFF7B7F80123ED
:1027E000A340114A1360114BA400E550BFF35F8F63
:1027F00000220B4B1A6086F3108870BD0121A140A6
:102800000A4BA200D5500A4B20001A788A4305498A
:102810001A70FFF7F7F900212000FFF797F8E5E7B6
:10282000280100D0A126001038600540D4170020F0
:102830001ED80020F0B54F46D6464646C0B5070024
:102840002E4C616A0D00A66A616AA942FAD18B42D8
:1028500008D805D00120E0BCBA46B146A846F0BD74
:10286000B242F7D9EFF3108A72B625480168002901
:10287000FCD0BFF35F8F0125BD4022491F4C884625
:10288000097889462943C9B28C464146604608709A
:10289000391D890065630A511B49B8004350216AFC
:1028A0000020294219D0616A0800A66A616A814243
:1028B000FAD18B4219D801D1B24216D8CC450BD0EF
:1028C0000E4B1F221D625D6301233A4093400F4A65
:1028D000136043464A461A700120BFF35F8F0022FF
:1028E000074B1A608AF31088B5E70020BFF35F8FAB
:1028F0000022034B1A608AF31088ACE700400540C1
:10290000280100D01ED80020B8D7002080E200E0C7
:10291000EFF3108C72B60A490B68002BFCD0BFF3A2
:102920005F8F01238340074A0748136202789A4366
:102930000270BFF35F8F00230B608CF31088704729
:10294000280100D0004005401ED8002070B50500C9
:102950000E001400002923D0002A12D080686B6872
:102960009847296800280ED063001B197200033BAA
:102970009219CB18033A9E7088188A5C002A11D1EC
:102980000470300070BD73009B196200033B121984
:10299000CB18033A9C7088188A5C002A05D106700F
:1029A0002000EFE75A700470EBE75A700670F7E703
:1029B00030B583600023CCB24373013304734260AB
:1029C0008373C4730D000068012C06D9421C0133C7
:1029D000DBB2137003329C42F9D1FF2129404B0036
:1029E0005B18C01800230338437030BD70B5050074
:1029F0000C1E07D0630001681B19033BCB185A78E3
:102A0000002A01D1200070BD500080180338091839
:102A100000204E784870210058702800FFF796FF7C
:102A2000310004002800FFF7E1FF0600002C26D04B
:102A30000028E7D021003200A8686B689847296811
:102A400000280ED073009B196200033B1219CB18AB
:102A5000033A9C7088188A5C002A00D05A7006706D
:102A6000D0E763001B197200033B9219CB18033A9D
:102A70009E7088188A5C002A00D05A700470340056
:102A8000C0E7C046F0B557464546DE464E46E0B57F
:102A90000D006F0001687F19033F0400C85D83B01B
:102AA0000192CA19002850D043001B18033BCB18D1
:102AB0005E78B446002E1AD1019E002E42D0E67BED
:102AC000002E04D073009B19CB18033B5D70A37BD1
:102AD000002B00D1A573E57300282FD1002353707C
:102AE00003B0F0BCBB46B246A946A046F0BD72009A
:102AF0006244033A8A185178884600215170894609
:102B00005970320001002000FFF720FF4346824643
:102B1000002B07D05B0021684344033BCB185A7855
:102B2000002A16D1424651462000FFF70FFF2168C8
:102B3000019BCA19002BC2D10028CFD043001B181B
:102B4000033BCB1800219970C8E7019B002BB6D13D
:102B5000C4E750008018033809184878834648466F
:102B60004870587041462000FFF7F0FE59468046F5
:102B70002000FFF73BFF414602002000FFF7E6FE82
:102B80008046CFE7F0B557464546DE464E46E0B5AF
:102B900083B00191457B04006F0000687F19033FFB
:102BA000C15DC219002952D04B005B18033BC3180A
:102BB0005E78B446002E1CD1019E002E44D0E67BE8
:102BC000002E04D073009B19C318033B5D70A37BD8
:102BD000002B00D1A573E573002931D10023280013
:102BE0005370617303B0F0BCBB46B246A946A04621
:102BF000F0BD72006244033A82185078804600208B
:102C000050708146587032002000FFF79FFE434607
:102C10008246002B07D05B0021684344033BCB185E
:102C20005A78002A17D1424651462000FFF78EFEFF
:102C3000019B01002068C219002BC0D10029CDD012
:102C40004B005B18033BC31800209870C6E7019B3C
:102C5000002BB4D1C2E75000801803380918487817
:102C6000834648464870587041462000FFF76EFE84
:102C7000594680462000FFF7B9FE41460200200079
:102C8000FFF764FE8046CEE770B5050000292CD022
:102C9000437B8B422ED04C0000686418033C04191F
:102CA000A278002A21D053009B18033BC25CC618AF
:102CB0008A4202D11BE0002A08D053009B18033B34
:102CC000C3185A788A42F6D162785A7000230122DA
:102CD0002800A3706370FFF7D5FE697B020028000F
:102CE000FFF734FE6873012000E0002070BD6378B8
:102CF0003370EBE701221900FFF7C4FEF2E7C0468C
:102D0000F8B504000C2017001D000E000AF07EFB31
:102D100043011B1A9901C91AC90009188901380011
:102D20000AF074FB069B29041B0319432368002B3C
:102D300020DB194B194DE3185A42534180225201AE
:102D400094461B03164A63441360164A13601F001F
:102D5000AA689743FBD1C023221D9B011343212264
:102D60002660A0601A602268002AFCDA0822E1606E
:102D70001A60F8BD3F2322681340B342D9D1A3683B
:102D80001B051B0D8342D4D1EE22E368D20213400F
:102D90008B42CED1EDE7C0460040FDBF00C00040F1
:102DA00000E0004000F000408023024A9B00034303
:102DB000D36270470080054010B580241C4BE405A9
:102DC0001C6000281AD001231A4C18431A4BDC61EE
:102DD0001A4C44401C62596298628021144BC90508
:102DE0001960174817490860E021C9041960002AD2
:102DF00007D18022144B12061A6010BD0E4BD86109
:102E0000EBE753019B1A9B009A18802312015B0485
:102E10009A4209D213000D490B60074B5A60802279
:102E2000094BD2051A60E8E7094B1A00F3E7C046E0
:102E300000B00540D3C007B0008005402D3FF84FDB
:102E4000FCFF01000820014000A00540142D0020D7
:102E5000FFFFFF00AA23064A1B0113602F23054929
:102E6000D360054B19605368002BFCDA7047C046ED
:102E70000040024000B0FA000060024010B501F0CE
:102E8000B1F900F01DFB00F0D9FC00F079FD02F073
:102E90002FFF01F037FA00F085F902F09BFE10BD1C
:102EA00040BA80B27047C04600BA7047F0B5C64617
:102EB000584D04002B68884600B5002B03D02A7AB1
:102EC000824200D17CE0544E2701EB68002B02D0F7
:102ED0002A7DA2426AD0AB69002B03D02022AA5CD3
:102EE000A24259D06B6A002B03D02C22AA5CA242CA
:102EF0002CD03B191B01F318DB7B002C35D0B27AA8
:102F0000022A68D0012C35D08D225200B25C022AF0
:102F100000D172E0022C31D0404AB25C022A00D1CA
:102F200072E0032C2AD1032B0DD83D4D9B0058593C
:102F300003F0A0F800223F193F01F719FB7B9B002B
:102F40005A510423FB7380BCB846F0BD3819000108
:102F500010304146AA6A3018984700236B623B192B
:102F60001B01F318DB7B002CC9D18D225200B25C0F
:102F7000022A3BD0294AB25C022A32D0294AB25CEA
:102F8000022AD0D1284AB25C9A42CCD104223B1901
:102F90001B01F318DA73D6E73819000110304146E7
:102FA000EA69301898470023AB619BE738190001A4
:102FB000103041462A69301898470023EB608AE7B1
:102FC00007013818144E000110306A68301898470D
:102FD00000232B6079E7F27B9A42D7D0012C93D162
:102FE000C8E7124AB25C9A42C8D1CFE72022FF322A
:102FF000B25C9A4200D08FE7C8E72022FF32B25C71
:103000009A4200D086E7C1E7084AB25C9A4200D0F3
:1030100087E7BBE76C240020A42400202A020000DC
:103020005C2400203A0300003F0300002F02000050
:10303000564BF0B54546DE4657464E469846030188
:10304000E0B59B461D1843462D015E19F37A070033
:1030500089B0012B00D996E04D4A9B00D4580192CB
:10306000002C00D185E01035454428000DF06AF9A8
:10307000A022123081B29200362000F0C7FD8146B6
:10308000002869D005AC0C22002120000AF082FD46
:103090003089FFF705FF01232080A3700C22FF3346
:1030A00021004846A38000F0CDFF3A4B0C269A46FB
:1030B0004346013D029703936A786F1C3B0000244E
:1030C0002E2A07D15AE05A780134E4B2591C2E2A2C
:1030D00049D00B00002AF6D1DA1B92B290461D00AF
:1030E0002200B218524534DC22003100484601F07B
:1030F0004BF8731C9BB2A41942463900484600F0B5
:10310000DDFFA4B22B78661CB6B2002BD4D1039B92
:103110000022310048469846029F01F035F81E4BC8
:1031200002340422049304A9A3B2484600F0C6FF67
:103130003B0001995B448C461B014344DA7ADB7BFC
:1031400016499B009200585862443523494602F0C4
:103150001FFF484600F062FE09B0F0BCBB46B24615
:10316000A946A046F0BD5B1B9BB2984622000D000D
:10317000B7E70021FFF79AFEB472EDE700233D00A8
:1031800000229846ADE7064808F0D2FDA4240020AE
:103190009C240020FEFF0000000100015C240020B0
:1031A000540501107047C046012800D97047054BEF
:1031B0008000002902D00A68C250F7E7024A12686C
:1031C000C250F3E79C2400204C150110F8B5DE46F0
:1031D00057464E4645460223E0B5474E002534008B
:1031E0009B460027A37A022B39D030D8002B22D05F
:1031F0008D235B009846414B9946414B9A46FDF71B
:1032000021FEB37A80B2022B41D04346F35C022BFD
:1032100044D04B46F35C022B49D05346F35C022B5F
:103220004ED05B46A37201232081E77228002373EE
:103230006773FFF7FDFE01351134EDB2FF34042D45
:10324000D0D1F0BCBB46B246A946A046F8BD032B80
:103250004FD12368002B13D10023A372EBE7237B0C
:10326000013BDBB22373002BE5D1637B0133DBB27F
:103270006373042B2AD023732800FFF7D9FEDAE703
:10328000013B2360002BD6D10023A372D3E73389FF
:103290008342B4D04346F35C022BBAD11733FF33D9
:1032A000F35A8342ABD04B46F35C022BB5D18A2351
:1032B0009B00F35A8342A2D05346F35C022BB0D159
:1032C000CE239B00F35A8342ABD198E7E37A002BDD
:1032D00008D10C4A5268002A04D001226373E272BA
:1032E0002273C9E700212800FFF7E0FD0023A37245
:1032F000A1E7054808F01CFDA42400202A020000D4
:103300003A0300009C240020880501100123F0B539
:103310001E0000250640184205D0002953DD05781F
:1033200001392D020130032213000340104251D114
:10333000072957DD072208390F0091430A000100D1
:1033400004000831891822689A189A429B415B420E
:10335000D21863680834D3189342924152429B18A2
:10336000A142F0D1F9084A1CD2008018C9001A0401
:10337000791A120C1B0C9B18012910DD02889B186E
:103380008A1E012A05DD44881B19052901DD818873
:103390005B1851084C1C640049000019511A01299E
:1033A00004D10278FE318D431543ADB2ED182B0CDC
:1033B0002D042D0C5B19180C1B041B0CC018002EBF
:1033C00002D180B2F0BD0020030600041B0C000EE9
:1033D0001843F6E7012903DD038802390230A7E725
:1033E0000023DCE71A00C5E7F8B557464E46DE462F
:1033F0004546E0B591460A9A8A4611681B680A0458
:10340000120C090C52181904090C52181B0C9B18A9
:103410001A0C1B041B0CD3181F0C1B041B0C0400E0
:10342000FF18002825D000239B46FF33012698462D
:10343000658960682900FFF769FFC019070C00045F
:10344000000C3F182E4209D05B46414673403A06B5
:103450009B463B0A120C0B401A4317002468002CB1
:10346000E6D15B46002B04D03A063F04120C3F0E17
:1034700017435046FFF714FD04004846FFF710FDC0
:103480002318DB191A0C1B041B0CD318180C1B0473
:103490001B0CC018C04380B2F0BCBB46B246A94664
:1034A000A046F8BD10B582B0049C0094FFF79CFFC5
:1034B00002B010BD10B5FFF729FFC04380B210BDA8
:1034C0000322094BFA219343084A090113600022A1
:1034D0001A71074A58181060012219600271054AD2
:1034E0005A50054A13607047DFC60020D4C600203A
:1034F000D8C60020A00FA00F102D0020F0B5D64692
:103500004F464646C0B500285DD0830700D079E01D
:1035100003003E4A083B12689A4200D96CE03C49DD
:103520000C300C68844267D31979002967D0FA20DF
:1035300019885E88000181420BD8864209D8981A02
:1035400080B2804690198246B04505D0008840453B
:1035500002D0304808F0ECFB5018844238D045883F
:103560004545F6D100251D712B4DAC462D689D4279
:1035700002D965462B601D009C4232D9834212D08D
:103580000779002F0FD184420DD0A84230D0018896
:10359000FA2019800001814205D044465018448029
:1035A0005E889019824653450DD050460079002818
:1035B00009D1AB4218D053461980FA231B01994216
:1035C00001D052185680E0BCBA46B146A846F0BDBC
:1035D00000251D71104DAC462D68AB42C9D39C42ED
:1035E000CED80E4808F0A4FB634650461860E2E7C8
:1035F00061461D000B60CAE7094808F099FB0948BD
:1036000008F096FB084808F093FBC046D4C600209B
:10361000D8C6002010060110102D0020440601100D
:10362000CC050110E8050110A8050110F0B5C6464B
:10363000364ACB1C00B513400B2B3CD9FA221201A1
:1036400093423BD8994239D8314A1668864254D8B9
:10365000304A1268824250D90400083C2588A11BD8
:103660002A0089B2083A521A92B29A4248D31FD01D
:103670007719BC463F79002F22D1FA2212019542D8
:1036800041D0624617880A00234D08329B182A68E9
:103690009BB262452ED0F21800251780157151801B
:1036A000FA212380128809018A4201D0B21853807E
:1036B00080BCB846F0BD0C239942C5D90020F7E77D
:1036C0001F001437BFB2BA42F2D30A0008329B1867
:1036D000FA229BB298461201954214D00E4FF2186E
:1036E0003B68934200D93A60002743461771158022
:1036F0005180D5E7F2182A60CEE7084808F018FB99
:10370000074808F015FB074808F012FBFCFF000013
:10371000D4C60020D8C60020102D0020600601105D
:103720007806011098060110F0B5D6464F46464679
:10373000C0B500282FD03A4BC41C1C400B2C30D9EC
:10374000FA231B019C4226D8A04224D8354BFA22EA
:103750009C461B6812019A46334B121B1E68534647
:103760009B1B98B21B0490461B0C934213D2082754
:103770007F4208E01588FB1A5B19A34213D22B0085
:103780002800984507D9F21811790029F2D010883D
:1037900003009845F7D80020E0BCBA46B146A846D9
:1037A000F0BD0C24D0E71427B846A04443451BD2F3
:1037B0000123083413711D4B1868130092450ED075
:1037C0001419A04225D3100008309207E4D01848FD
:1037D00008F0AEFA1B88F3181979002901D0984235
:1037E000F8D161460B60EBE7FA27083403193F0173
:1037F0009BB2B946BB420FD0F718397101213D8009
:1038000078801380117139884945D4D071184B8064
:10381000D1E7084808F08CFA074808F089FAC04652
:10382000FCFF0000102D0020D4C60020D8C60020C8
:10383000DC060110AC0601109806011024230022BA
:10384000F0B54746CE469046994603320424944646
:10385000124E80B5124B134FB14441463268396065
:10386000614603338B43002C0BD0158800210022C6
:1038700000E003000132196058191900A242F8DB78
:103880003B600436B14504D0326897685368548869
:10389000E3E7C0BCB946B046F0BDC04664070110BE
:1038A00050BE002078C6002010B5082812D80C4B56
:1038B0008000C458FCF71AFFA3681C68002C07D0CE
:1038C00022681A60A30707D1FCF712FF200010BD81
:1038D000FCF70EFF0024F9E7024808F029FAC04679
:1038E000640701102007011070B50C0008280ED8DD
:1038F00000290CD0084B8000C5588B0708D1FCF775
:10390000F5FEAB681A6822601C60FCF7F1FE70BD22
:10391000024808F00DFAC046640701104407011080
:1039200070B5436816000A6804000D0082B09A4220
:1039300001D102B070BD3360300001A9019201F0E5
:10394000CDF9300001A902F0C1FB01A9300000F05F
:1039500029FC392329686160E25C343B1340052B64
:1039600005D0E369002BE4D020009847E1E7002967
:10397000F7D01207F5D52000211D03F0A5FFF0E7D1
:103980007047C046F0B504000D0017001E0083B05C
:10399000002922D0002F23D0002E24D02B68002213
:1039A000002B15D03B68A1688B4200D0A360336820
:1039B000E1688B4203D1002A04D003B0F0BDE3607C
:1039C000002AFAD16A4629002000FFF7A9FFF4E790
:1039D0006268002A09D10122E4E7164D002FDBD1ED
:1039E000144F002EDAD1134ED8E7684601A901938F
:1039F000009201F073F9684601A902F067FB01A982
:103A0000684600F0CFFB39232A686260E15C343BF2
:103A10000B40052B07D1002A05D0090703D520004C
:103A2000211D03F051FFE369002BD4D020009847FB
:103A30000122B7E74C15011070B5041E16D043687B
:103A4000002B17D139220121A35C194224D11D4B2F
:103A50001A68A2422ED01C4A1368A34204D126E061
:103A60001A68A24203D01300002BF9D170BD22685E
:103A70001A60FBE7051D0021280001F02FF9002145
:103A8000280002F023FB0021280000F08BFB3922E4
:103A90000121A35C1942DAD018008843A0541B0707
:103AA0000BD4E369002BD2D020009847CFE72368DE
:103AB0001360DBE700221A60CDE7200003F040FE30
:103AC000EFE7C04694C6002098C6002070B5041EDB
:103AD00003D03925435D5A0700D570BD0422134336
:103AE000435503F0DBF90523625D1340052B05D038
:103AF000236A002BF1D020009847EEE76368002B83
:103B0000F6D01207F4D52000211D03F0DDFEEFE70B
:103B100010B500280AD039220421835C194205D04F
:103B20008B438354036A002B00D0984710BDC046D6
:103B3000021E0ED0084B1868002809D03C2102E074
:103B40000068002804D0435C0133DBB29342F7D114
:103B500070470020FCE7C04698C60020F8B5050075
:103B60000026002826D00F270BE0012B24D0002BA5
:103B70002AD12800FFF7C2FC0136F6B2002C19D07A
:103B80002500FCF7B3FDAC7B002C1AD0013CE4B25D
:103B9000AC73FCF7ADFD002C0CD12B7B2C683B40AB
:103BA000022BE2D1290008200136FFF79DFEF6B274
:103BB000002CE5D13000F8BD29000720FFF794FE66
:103BC000DAE7034808F0B4F8024808F0B1F8C04654
:103BD000F40701100C08011010B5FCF787FD002256
:103BE000084B1A70FCF784FD074B1868002803D1B6
:103BF00007E0C068002804D0436F002BF9D001F023
:103C0000BBF810BD19D80020C8D700200023F0B59C
:103C10004F4699460B040B43D64646469846C12369
:103C2000C0B582460D00170004005B009A423FD0E9
:103C300008D81400433BFF3B9C43012C6AD03D480D
:103C400008F076F8A0239B009A42F8D103000324E1
:103C500003330335A343A5435B199BB2180010300F
:103C600080B2AB421DD385421BD8FFF75DFD061E17
:103C700018D04B4603605346C7184346133783603A
:103C80002D4BA7434760C3600CE0FCF72FFD0122DA
:103C90002A4B1A70FCF72CFD002E02D03000FFF7E3
:103CA0005DFF00263000E0BCBA46B146A846F0BD34
:103CB00000239846224B00269A4600230327994664
:103CC00007E04246ED1AADB21060002DEAD0804602
:103CD00000240820FFF7E8FD0028D6D05246E31C58
:103CE000BB43D31A1A1C9BB2AB4200D92A1C4946CB
:103CF000041993B213344281124ABC4301604460F8
:103D00000581C260002EDCD1ED1AADB20600002D97
:103D1000DDD1C7E70720FFF7C7FD061EC2D04B461F
:103D200003604360434683604B4607734373C4811B
:103D3000B8E7C046200801108000010019D8002013
:103D4000EC0500008200010070B5041E33D002892A
:103D50008A421BD98A1A07E0C91A238989B29B189B
:103D600023812468002C20D063898B42F4D3227BEA
:103D70000D040D43120701D18B4208D12068A560C4
:103D8000002801D0FFF7EAFE0023236070BD6368BE
:103D900020001B1BC91889B2FFF748FC002807D078
:103DA0008442EBD0054807F0C3FF054807F0C0FF89
:103DB000044807F0BDFF044807F0BAFF8808011067
:103DC000540801106C0801103C080110030070B584
:103DD00000281ED080225202914218D2002914D00D
:103DE00002898CB2A21892B2944210D8057B0120AD
:103DF0007F2D0BD95D68691A1D001035A94205D3C6
:103E0000596059891A8164185C81002070BD0120B5
:103E1000FCE7014807F08CFFA408011010B500284A
:103E200002D0FFF79BFE10BD014807F081FFC0469E
:103E3000A408011003000020002B04D01B680130EF
:103E400080B2002BFAD1704710B50C0000281FD0AB
:103E500000291CD00368002B07D002892189521841
:103E6000028118001B68002BF7D102894389934215
:103E700011D1228904609B180381FCF737FCA37BD6
:103E80000133A373FCF734FCA37B002B06D010BDD9
:103E90000029FCD0F1E7034807F04AFF024807F089
:103EA00047FFC046C4080110B0080110F8B54746E6
:103EB000CE46804680B50D0091461F00002900D1F6
:103EC0007EE00B89934200D27AE0002800D177E0AF
:103ED0004B460289FB189A4200DA71E000264489B9
:103EE0006B89E41B9B1B9C4200D91C004C4500D9EC
:103EF0004C464346696858682200C019891909F080
:103F00004FFE4B463F1936191C1BA3B29946434638
:103F10005C89BC4257D36B89B34257D303D12D6818
:103F20000026002D2FD0BC420FD06A892B899A42DF
:103F300023D043461B89A34217D04B46002BCFD139
:103F40000020C0BCB946B046F8BD43461B68984641
:103F5000002B25D06A892B899A420DD043465C8973
:103F600043461B890027A342E7D143461B68002B29
:103F7000E3D006204042E4E700272B68002BF8D16D
:103F800043465C89D5E74B46002B19D1BC42D0D1C2
:103F900043461B689846002BD2D037005C89C8E79F
:103FA0004B46002B0CD16A892B8900209A42C8D13C
:103FB0002B6806305A4253415B4218400638C0E72E
:103FC00010204042BDE7034807F0B2FE024807F068
:103FD000AFFEC046F40801100C090110F0B5C6464A
:103FE000050088461700002600B5002826D00029C5
:103FF00024D0002F05D121E02D681B1B9BB2002D82
:104000001CD06C89002B01D0A342F5D2E41A221CEB
:10401000A4B2BC4200D93A1C94B2424669683F1B24
:104020009019C9182200A619BFB209F0B9FDB6B29D
:104030002D68002F02D00023002DE2D1300080BC7B
:10404000B846F0BDF8B5CE464746050088469146CD
:1040500080B5002824D0002922D0038993421CD3A4
:1040600016000027002A02D112E0002D1BD06C8917
:10407000B44200D9340043466868D919220009F0D7
:104080008FFD361B2D683F19002EEED1B9450DD19D
:104090000020C0BCB946B046F8BD01204042F8E758
:1040A00010204042F5E7034807F042FE024807F0BF
:1040B0003FFEC0462809011040090110F0B5D64660
:1040C0004F46464604008A46C0B5002805D145E063
:1040D00024685B1B9BB2002C40D06589AB42F7D2B1
:1040E00021899F18B94239DB9D4240D9E91A8A4299
:1040F0002EDD60688AB2C01851467F1B904609F0D9
:104100004FFDBBB29946002B1CD02568002D2BD04B
:104110002B894B4522D34F46002601E0002D20D0AD
:104120006C89BC4200D93C0043469919686822005A
:10413000514409F035FD3F1B2D683619002FEDD194
:10414000B14517D10020E0BCBA46B146A846F0BD43
:1041500060685146C01809F023FDF3E70120404292
:10416000F1E7064807F0E4FD10204042EBE7044881
:1041700007F0DEFD034807F0DBFDC046280901100B
:10418000580901104009011005E043898B4205D808
:10419000C91A006889B20028F7D1704743685A5499
:1041A000FBE7C04610B5002811D00268002A0ED0E7
:1041B00000290CD00B68002B09D0094B1B68002B81
:1041C00005D01C68944203D0DB68002BF9D110BDE8
:1041D0000A681A60DB68002BF9D00268F1E7C04674
:1041E00098D600207047C04610B5041E22D0037D2B
:1041F000042B05D0072B0CD0032B01D0002007E0A7
:10420000200000F0F3FF0523002807D0431C0BD04B
:1042100010BD00F0EBFF0028F8D109232000237522
:1042200001F058F90020F3E70822638B00201343C4
:104230006383EDE7014807F07BFDC046700901107C
:1042400070B50600806F002803D0FFF7E7FD00235C
:10425000B367746F002C18D06068256800280CD0F4
:10426000FFF7DCFD21000420FFF73EFB002D0AD004
:104270002C00606825680028F2D121000420FFF797
:1042800033FB002DF4D1002373670123F46E5B42EE
:104290003386002C16D06068256800280CD0FFF704
:1042A000BDFD21000420FFF71FFB002D0AD02C00CC
:1042B000606825680028F2D121000420FFF714FB74
:1042C000002DF4D1346F002C16D0606825680028CA
:1042D0000CD0FFF7A3FD21000420FFF705FB002D04
:1042E0000AD02C00606825680028F2D12100042043
:1042F000FFF7FAFA002DF4D100236822F366336742
:10430000B35270BD10B5FCF79DFD044A800494467D
:10431000034B800C6044188010BDC04600C0FFFFF6
:1043200020100020F8B500281DD0037D012B34D0CB
:10433000048D1D4A61188BB293421BD91300466A43
:10434000458E1A4FC46A0385B218291CBD420BD88A
:1043500089B20919511A11D5A41B1BD480235B0201
:104360009C421DD24485F8BD391C89B20919511AE5
:10437000F2D403E09C42E1D81A00E0E743850C4BFD
:10438000121B9A42EFD90222438B1343438301F05D
:10439000A1F8E8E700234385E5E7064807F0C8FCF5
:1043A000054807F0C5FCC046A02D0000D01600004F
:1043B000670B0000D0090110B4090110F0B5DE460A
:1043C000574645464E46E0B5B64D89B02B68013399
:1043D0002B60B54B9B465A461B78049201331370F1
:1043E000B24B9A46D346B24B05935B461C68002CF1
:1043F00000D19CE000232F009946DA46237D002B54
:1044000000D138E2012B00D13BE20A2B00D135E28A
:10441000049AA17F1278914200D176E1A2774222DC
:10442000A25C022B00D137E10B2A00D9C1E0A12206
:10443000A25C9346002A00D16AE1226F002A00D0D4
:104440002EE2E26E002A00D127E2A222A25C0B2A11
:1044500000D9AEE05946A020964A895C225C8A4287
:1044600000D29CE16023E15A002900D090E02000B6
:1044700001F0DCFA002800D190E0237D0022012524
:104480009346062B00D19AE0627A120725D5042BB9
:1044900000D063E13A68236AFA21D31A0693942381
:1044A000E25804339446E6580433E0584900704318
:1044B0006044079208F0AAFF0121069B88468342C8
:1044C0000ED8A325635D079A5E43F431B018FF311F
:1044D00008F09CFF069B834251D85D460023984616
:1044E000666F002E0AD03A68236AD21A4023E15E32
:1044F0004B005B185B00934200D87AE0237D032BCE
:1045000000D195E0092B00D1D8E0002D00D0A6E124
:10451000237F627F0133DBB2E56823779A4200D8BC
:10452000DCE0A1462C00002C00D067E73D00624F84
:1045300000243968002904D11AE00C00C968002958
:1045400016D00B7D0A2B00D09EE12B680A6A9B1ABD
:10455000F02BF2D9002C00D11AE13B688B4200D13C
:10456000A4E1CE68E6600220FFF7BEF9311EE8D173
:1045700009B0F0BCBB46B246A946A046F0BD20003B
:1045800001F0E6F90028A8D1635D01336355A4E783
:10459000200000F051FD002800D156E1A0230022A8
:1045A000E254A132A35C062B00D966E70133A35481
:1045B00063E7012202259346062B00D064E7638B54
:1045C000DB0600D5BDE0637A1B0700D585E7666F83
:1045D000002E00D1EAE0236A3A685D46D21A002331
:1045E00098464023E15E4B005B185B00934200D984
:1045F00084E77068A346346800280CD0FFF70EFCEF
:1046000031000420FFF770F9002C0AD026007068F2
:1046100034680028F2D131000420FFF765F9002C3E
:10462000F4D15C4600236367237D032B00D069E748
:104630003B68226A9B1A282B45D99023E558200015
:10464000FFF7FEFD4B46002B00D198E053461B6858
:10465000A34200D11EE14A46E368D3604346002BE3
:1046600000D07FE0E36826699846237D012B00D1C6
:104670000DE121000220FFF737F90023059C23708C
:10468000002D07D00D2130004942A8472378002B88
:1046900000D0E1E0444646E7052A00D8C7E60125F8
:1046A0001CE7C046D8D700201DD80020C8D700205E
:1046B0001BD80020A30C0110DCD700203B68226A25
:1046C0009B1AF02BB9D8002DB7D1237F627F01331D
:1046D000DBB2E56823779A4200D922E70023059AE6
:1046E000237713708C33E358002B0AD02100206904
:1046F0009847059B1B78002B00D0ADE0002800D028
:104700000FE7200000F0E6FE0BE7A146E4680AE7A9
:104710003022A15E6848228E824202D8013211B254
:1047200021864022A25E01258A4200DDA9E6200002
:1047300000F0E8FD002845D0236F002B3FD0237DFB
:104740009FE63A68236AD21A282A00D83FE7002356
:10475000666F9846002E00D0C8E66EE7072B00D1A2
:1047600098E6BAE6238B626A216D0293E38A200001
:104770000193231D0093230000F012FE72E75346BD
:104780001B68A34200D08EE05246E368136065E7E1
:104790003B688B4200D08CE0CE683E60E3E601329D
:1047A000D2B222548A4200D268E65BE65B46002B16
:1047B00000D1ADE69023E558002398463FE7E36E2D
:1047C000002BBCD0237D022B14D03C22A35E3E21C3
:1047D000625EDB109B184222A15C38480A1C0C293F
:1047E0002AD8D2B2825C934080221202934221DA0C
:1047F0004022A3520023482023866033E15A255AE1
:10480000628E0B1CA94200D92B1C9BB250005B0886
:1048100085B2191CAB4200D2011C4A23E152023B73
:10482000E25200222233E252200001F07FF80125FB
:10483000237D26E6224BDBE70C22D2B2825C93403A
:10484000802212029342D3DBF4E7200000F042FE04
:10485000002800D0A2E610E63D00D346C5E5902230
:10486000A558002B00D1EDE60A2B00D1EAE6012B7A
:1048700000D0E4E6E6E6134807F05AFA124807F0DB
:1048800057FA124807F054FA114807F051FA114844
:1048900007F04EFA104807F04BFA104807F048FAB4
:1048A0000F4807F045FA0F4807F042FA0E4807F0A4
:1048B0003FFA0E4807F03CFAFE7F0000AC0C0110F6
:1048C000FF7F0000F8090110500A0110240A0110AE
:1048D000400B01107C090110E80A0110B00A011018
:1048E0007C0A0110140B0110700B0110980B0110C1
:1048F00010B5041E08D04068002801D0FFF78EFADA
:1049000021000420FEF7F0FF10BDC04610B50C1EBC
:1049100047D0002848D003688B4204D12FE0DA68E2
:10492000A24224D01300002BF9D10023E360237DA1
:10493000002B0FD1638BDA0729D4E36E002B36D11D
:10494000236F002B36D1636F002B36D100232375E4
:10495000E38210BD0A2BF0D0012BF7D02000FFF727
:104960006FFC237D0A2BE8D0012BEFD0E2E7E26851
:10497000DA600023E360237D002BEBD1DAE7CB681C
:1049800003600023E360237D002BE3D1D2E7022202
:1049900013436383200000F09DFD237D012BD5D0C0
:1049A000CBE7074807F0C4F9064807F0C1F9064805
:1049B00007F0BEF9054807F0BBF9054807F0B8F95C
:1049C000C00B0110DC0B0110FC0B0110140C0110CA
:1049D000300C0110F0B54E464546DE465746E0B570
:1049E00005000E0087B0002876D0037D012B00D192
:1049F000B2E00A2B00D19DE0026D9146426A9246D8
:104A000090228258934602699046002B6BD1C38A4C
:104A1000002B00D071E00023002605932C6F002CA2
:104A200016D06068276800280CD0FFF7F7F921003E
:104A30000420FEF759FF002F0AD03C006068276869
:104A40000028F2D121000420FEF74EFF002FF4D100
:104A5000EC6E002C16D06068276800280CD0FFF799
:104A6000DDF921000420FEF73FFF002F0AD03C00B3
:104A7000606827680028F2D121000420FEF734FF87
:104A8000002FF4D16C6F002C16D0606827680028C6
:104A90000CD0FFF7C3F921000420FEF725FF002FFB
:104AA0000AD03C00606827680028F2D12100042069
:104AB000FEF71AFF002FF4D1002E2ED12B7D012BF3
:104AC00047D029000220FEF70FFF5B46002B03D0E2
:104AD0000D2140464942D84707B0F0BCBB46B2461C
:104AE000A946A046F0BDC38A29001D480593FFF7DB
:104AF0000DFF01221B4B1A7090E71B4A136883427B
:104B000008D1C36813600023EB6084E7DA68AA4227
:104B10001CD01300002BF9D1F5E72B8B52460293E2
:104B2000059B494601932B1D009328002B0000F0A4
:104B300037FCC3E729000D48FFF7E8FE2B7D012B6A
:104B400007D029000220FEF7CFFEC5E7EA68DA6049
:104B5000D9E7074807F0ECF8064807F0E9F8C0463F
:104B6000C8D700201BD80020CCD70020DCD70020DD
:104B70007C090110480C0110F8B5041E32D0002346
:104B8000866F777B83678433C558002D0CD0002354
:104B9000320021000069A84700280BD00D301ED03C
:104BA0000520A6674042F8BD3189FFF7BBFB300006
:104BB000FFF734F9BF0610D5238D0C4A934201D07C
:104BC000013323858423E558002D06D000230022DD
:104BD00021002069A8470D3001D00020E3E70D2017
:104BE0004042E0E710204042DDE7C046A02D000033
:104BF000F0B54F464646D646C0B5204D204F2B78DF
:104C000001332B701F4B9946012398464B461C6875
:104C1000002C1BD008262B78A27F9A421BD042463C
:104C2000A377638B1A421ED11E4216D1E3689A46BF
:104C3000A36F002B07D0002320003B70FFF79CFFE1
:104C40003B78002BE2D15446002CE4D1E0BCBA46BC
:104C5000B146A846F0BDE468F6E7B343200063839D
:104C6000FFF7C2FAE2E7022213436383200000F059
:104C700031FC0322638B93436383D5E71DD8002067
:104C80001BD80020C8D7002010B5FFF7B1FF054A98
:104C900013780133DBB21370DB0700D410BDFFF7CC
:104CA0008DFBFBE71CD8002010B5002A10D000298E
:104CB0000DD00A8E002A0AD0131C282A00D22823DD
:104CC000283B1A1C9BB2834200D9021C90B210BD33
:104CD000014807F02DF8C0467C0C011070B50400A7
:104CE0000D00002802D00368002B00D170BD1F4AC0
:104CF0001068002805D00268934226D0C0680028BA
:104D0000F9D11B4B1868002806D0236802689A4224
:104D100024D0C0680028F9D1002DE7D02B68002BE3
:104D2000E4D0144B1A68002AE0D023681168994235
:104D300005D0D268002AD9D011689942F9D12B68E0
:104D40001360D268002AF0D1D0E7C6680121FFF7CE
:104D500041FE002ED5D030002368CCE7C668012183
:104D6000FFF738FE002ED7D03000CEE7C8D700209E
:104D7000CCD70020D4D7002070B5446F0600002C9B
:104D800018D06068256800280CD0FFF747F821008C
:104D90000420FEF7A9FD002D0AD02C0060682568CC
:104DA0000028F2D121000420FEF79EFD002DF4D151
:104DB0000023736770BDC046F0B54F464646D646E1
:104DC000C0B5994608AB80460E0092461F78002871
:104DD0005FD000295AD00425BB0004201D40FEF7F7
:104DE00063FD041E4DD00023877203604660338943
:104DF000AB4251D35B1B038114213000FEF7E6FF69
:104E0000061E34D16368AD025F684346E760D88A06
:104E1000FEF746F843463870000A7870188BE7684A
:104E2000FEF73EF8B870000AF8704846E768FEF7EB
:104E30003BF8030EFB71E368020A9846A023DB01EE
:104E400038717A71020CE818534603431800BA719E
:104E5000FEF726F843461873000A5873E3689E74F9
:104E6000DE742000E0BCBA46B146A846F0BD8C21F5
:104E70000B4B20005A5A002401325A52FFF738FDDA
:104E8000EFE73000FEF7CAFF0024EAE7054806F026
:104E90004FFF054806F04CFF044806F049FFC046A6
:104EA000182D0020DC0C0110BC0C0110000D0110AD
:104EB000F0B54746CE4680B505000C0090461E0072
:104EC00085B000294DD0002838D0007A00282BD199
:104ED000180002F0E1FE071E2AD063682289994675
:104EE0000621434620000096FEF7DCFA4B46187474
:104EF000000A5874EB7AAD7A78211B48425A013285
:104F0000425206220095019241463200200002974B
:104F100002F000FF05002000FEF780FF280005B02A
:104F2000C0BCB946B046F0BDFEF702FE071ED4D1A4
:104F300004252000FEF772FF6D42EFE7180002F033
:104F4000ABFE071EF4D06568434622890621200087
:104F50000096FEF7A7FA2874000A6874FF2300255C
:104F6000CAE7024806F0E4FE182D00202C0D0110BF
:104F7000F8B54E464546DE465746E0B505001600F4
:104F800000284DD0A022436A14319846C38A89B2C2
:104F90009A46038B92009946438D22209B46FEF74A
:104FA00035FE071E35D04389132B3CD94468504643
:104FB000FDF776FF2070000A60704846FDF770FF2D
:104FC000330AA0702671000A6371330C360EE0704C
:104FD000A3714046E671FDF767FF030A2072637212
:104FE000030C000EA372E0721048FDF759FF207306
:104FF000000A60735846FDF753FF0023A073000AB0
:1050000023746374A374E374E0736A8D6B6A9B18F2
:10501000EB623800F0BCBB46B246A946A046F8BDDC
:10502000034806F085FE034806F082FE105000009B
:10503000580D0110800D0110F0B54E46DE46574662
:105040004546E0B50C00060083B0002800D1BFE063
:10505000C56E002D00D1AFE0002900D1B5E02B894D
:105060009A468B4200D88EE0438E8B4200D2B2E04B
:105070000422AB7A36209B469B001A4053465F1AA7
:10508000BFB2D1199146A02289B29200FEF7BEFDAF
:105090008046002800D192E068682A8903899B1A1B
:1050A00042465168E3183A009BB24944FEF796FF26
:1050B000B84200D078E0EB68587B1A7B00021043BE
:1050C000FDF7EEFE08230700C2B21F40184262D16E
:1050D0003733134099460122012349460B4202D03F
:1050E000994389461700E9684A790B7912021A43F5
:1050F0008B79C8791B04134300061843FDF7D4FECF
:105100005A462318009241463A003000FFF754FEF9
:10511000071E54D06868FEF78DFE66239846424607
:10512000F35A1B1AB35253466868E41A0189A4B2B1
:10513000611889B2FEF708FE2B894846E418EB682F
:105140002C811C7B5B7B1B021C43FDF7A9FE2043CB
:10515000E96882B2120A08734A736868FEF76AFE49
:105160004346F35AC0184346F0527868FEF762FE91
:105170004346F35AC0184346F0522B683B602F60F9
:105180003B68002B0DD0002003B0F0BCBB46B246FC
:10519000A946A046F0BD37231340994609220827A7
:1051A0009AE76822B352EEE784210C4B40465A5AE4
:1051B00001325A52FEF732FE01204042E4E78421D8
:1051C000064B5A5A01325A52F6E7054806F0B0FD2E
:1051D000044806F0ADFD044806F0AAFD182D002095
:1051E000D40D0110B00D0110F80D011070B50400C0
:1051F00082B0002800D171E0C36E002B0CD01D00DE
:105200001B68002BFBD1EB68587B1A7B0002104314
:10521000FDF746FE400740D0A02200213620920034
:10522000FEF7F4FC011E4BD00022E36D200000923B
:105230000132FFF7C1FD002842D0C3689B0750D15F
:105240000389002B50D1E36E002B24D01A001B6879
:10525000002BFBD1106068230022E2522022E36D74
:1052600040680133E365638B13436383FEF7E2FD1C
:105270006623E25A801880B2E052002802D1002052
:1052800002B070BD236F002BF9D1E36E002BF6D175
:10529000174806F04DFDE066DDE7EB68587B1E7BA6
:1052A000000206430120FDF7FBFD3043EA6883B2AC
:1052B0001B0A107353732022638B13436383DEE74F
:1052C0008022638B84211343638384230120094A52
:1052D0004042D35A01339BB25352D1E7064806F0FD
:1052E00027FD064806F024FD054806F021FDC046CE
:1052F000680E0110182D0020080E0110240E011058
:105300003C0E0110F0B5C646050000B5002841D09E
:10531000026F002A39D01400636826689B7B002E38
:1053200007D0012B31D13400636826689B7B002EA7
:10533000F7D1012B29D1EB6EE16823608023EA6667
:105340006A8B1B0113432E676B834A790B79120218
:105350001A438B79C8791B04134300061843FDF7E1
:10536000A3FD238907009846E3684744587B1A7BCE
:1053700000021043FDF794FD032303405A1E93419E
:10538000DB190020EB646E6301E00620404280BC24
:10539000B846F0BD014806F0CBFCC046900E0110A7
:1053A000F0B55746DE464E464546E0B583B01F0091
:1053B0000CAB904604CB01901B8808009B460EABBB
:1053C0001B8891469A46002F4BD0002A4CD0FDF7FF
:1053D0006BFDA0220500142122209200FEF716FC8E
:1053E000061E37D04389132B41D944685846FDF730
:1053F00057FD2070000A60705046FDF751FD2B0AE2
:10540000A0702571000A63712B0C2D0EE070A37142
:105410004046E571FDF748FD030A20726372030CF4
:10542000000EA372E0721348FDF73AFD2073000AE4
:1054300060731148FDF734FD0023A073000AE07388
:1054400023746374A374E3743A004B4631000198EB
:10545000FFF72EFD03B0F0BCBB46B246A946A046FE
:10546000F0BD064806F064FC054806F061FC0548FE
:1054700006F05EFC145000002DA00000B40E0110D8
:10548000D00E0110800D011010B5041E1DD0006D4E
:10549000FDF70AFD002102002000FFF769FD011E53
:1054A0000DD02200231D2000FFF702FD0322638B95
:1054B000002802D19343638310BD1343FBE703220B
:1054C0000220638B40421343F5E7014806F030FCAD
:1054D000EC0E0110F0B5DE4657464E464546E0B5A7
:1054E000040089B0002800D113E2037D012B00D114
:1054F0000CE2C94B1B6883423ED04823C56EC65A96
:105500001833C75A002D30D0031D007A9846002862
:1055100000D0DFE1180002F0BFFB81464B46002BB4
:1055200000D1EAE12368002B02D14B465B6823607F
:10553000331CBE4200D93B1CE9689FB24A790B7903
:1055400012021A438B79C8791B04134300061843CF
:10555000FDF7AAFC2B89626C9B1A1B18BB4213D95E
:105560006023E35ABB4200D106E1638B9A0700D562
:10557000FEE0802293436383002009B0F0BCBB4669
:10558000B246A946A046F0BDA1230022E254236FF3
:10559000002B00D100E11A001B68002BFBD19246C2
:1055A0009E4B06939E4B07934346B84605939FE058
:1055B000EE686B689F7B012F5ED1606AFDF774FC1B
:1055C000030A30727372030C000EB372F072608DB6
:1055D000EE68FDF765FCB073000AF073628D636AD4
:1055E000EE689B18E362AB7A1F4200D01AE11423E5
:1055F0009B46B3443022A35E002B01DA00232386AE
:10560000636B002B00D1F4E0686843684289F31AA9
:105610009BB2D21A428102894660D21A002392B20A
:10562000028133747374A97A01330B400321013B67
:105630008B431833F3189B4500D064E1059F23008A
:1056400006210097FDF72EFF782230740699000A94
:1056500070748B5A686801338B524A46E37A02921F
:1056600006220192A27A210000923A0002F052FB37
:10567000002800D037E1EE682B68E366237D022B1B
:1056800003D00322638B93436383727933791202CD
:105690001A43B379F0791B04134300061843FDF74E
:1056A00003FC2B8906009B46EB685E44587B1A7B03
:1056B00000021043FDF7F4FB032303405A1E9341FD
:1056C0009E19236D9B1B00D52665EB682E89587BA0
:1056D0001A7B00021043FDF7E3FB80075FD1002E29
:1056E0005DD12800FFF704F9E56E002D00D1FFE041
:1056F000E9684A790B7912021A438B79C8791B043D
:10570000134300061843FDF7CFFB636CC01A2B89C7
:10571000C018404500D9E3E0EB68587B1A7B0002D3
:105720001043FDF7BDFB400700D5E9E0236F002BD8
:105730000BD04422638B1A4207D1E26E002A00D1BB
:1057400085E01168002900D17CE0237D022B00D187
:105750002EE7EB6810201F7B5B7B1B021F43FDF7CE
:105760009FFB3843EE6883B21B0A3073737320E7E4
:105770002000FFF789FE00E7236F002B00D0F4E63E
:10578000A133E35C002B00D0EFE68021A02249008A
:10579000A1520232A354E8E600239A4600E7002310
:1057A0002B60236F002B21D0E9684A790B79120214
:1057B0001A438B79C8791B04134300061843FDF77D
:1057C00073FB5346D96806004A790B7912021A43D3
:1057D0008B79C8791B04134300061843FDF764FB5B
:1057E000361A48D45346AA461D607DE7AA46256767
:1057F0007AE7079B1B6863637279337912021A4355
:10580000B379F0791B04134300061843FDF74CFBF2
:10581000EE68A063F8E6C046D0D70020182D00201F
:10582000D8D700204946059A3B48FFF73DFA812327
:105830009B041843FDF738FB18239B467061B34463
:10584000EE68D7E61089618E884200D37DE7642137
:10585000615A002900D178E76621615A1F2900D9D1
:1058600073E7A021194200D06FE7002A41D08022BF
:105870009343638380E670239B46236FA3445F4674
:10588000002B04D122E03F683B68002B26D0D9686A
:105890004A790B7912021A438B79C8791B04134396
:1058A00000061843FDF700FBE96806004A790B790A
:1058B00012021A438B79C8791B041343000618435C
:1058C000FDF7F2FA361ADED4BB463B682B605B4626
:1058D0001D6009E7FEF72CF981461FE6BB46F5E798
:1058E000E26E638BC1E78022638B1343638344E6DC
:1058F000638B68220021A1523BE6042040423CE633
:10590000064806F015FA064806F012FA054806F0B1
:105910000FFA054806F00CFAB40500004C0F011010
:10592000180D0110240F01100C0F011010B50028E4
:1059300008D04222835CFF2B01D001338354FFF750
:10594000C9FD10BD014806F0F3F9C046640F01100F
:10595000F8B54546DE4657464E46E0B5051E59D0D9
:10596000006D0138FDF7A0FAA0226B6A0600994687
:10597000EB8A14219B462B8B22209A466B8D92003A
:105980009846FEF743F9071E41D04389132B44D9AB
:1059900044685846FDF784FA2070000A607050464B
:1059A000FDF77EFA330AA0702671000A6371330C8A
:1059B000360EE070A3714846E671FDF775FA030AEA
:1059C00020726372030C000EA372E0721448FDF79C
:1059D00067FA2073000A60734046FDF761FA0023FE
:1059E000A073000AE07323746374A374E3746A8D74
:1059F0006B6A39009B18EB622A0028002B1DFFF709
:105A000057FAF0BCBB46B246A946A046F8BD0120F5
:105A10004042F6E7034806F08BF9034806F088F9A0
:105A200010500000880F0110800D0110F0B5C6461F
:105A3000040000B5002800D179E0C56E002D00D12A
:105A400070E0A222835CFF2B01D001338354EB680A
:105A5000587B1A7B00021043FDF722FAC00736D4A8
:105A6000E96820004A790B7912021A438B791B04EA
:105A70001343CA79012112061A43FFF779FA061E69
:105A800052D07768390068682A89038914319B1AD3
:105A90009BB20122FEF7A2FAE9684A790B79120259
:105AA0001A438B79C8791B04134300061843FDF78A
:105AB000FBF9236D01301B1A00D52065220031004F
:105AC0002000231DFFF7F4F980BCB846F0BD2B89F8
:105AD000E96898464A790B7912021A438B792000BB
